:100000000C942D010C9401040C94DA030C9455010A
:100010000C9455010C9455010C9455010C94D60C7C
:100020000C9455010C9455010C9455010C94AE0799
:100030000C9455010C9455010C9455010C945501E8
:100040000C9490030C9455010C945A020C943402B5
:100050000C9455010C9455010C9455010C945501C8
:100060000C9455010C94550150415F4D415800507E
:10007000415F484947480050415F4C4F570050414D
:100080005F4D494E0031362062697473003820623A
:100090006974730044697361626C6564006E5246F2
:1000A00032344C30312B006E524632344C303100F9
:1000B0003235304B42505300324D42505300314D97
:1000C000425053005354415455530909203D2030A8
:1000D00078253032782052585F44523D257820549C
:1000E000585F44533D2578204D41585F52543D257B
:1000F000782052585F505F4E4F3D25782054585F0E
:1001000046554C4C3D25780D0A00504120506F77E4
:10011000657209203D2025530D0A007E0077006F8F
:10012000006800435243204C656E67746809203DA7
:100130002025530D0A0094008D0085004D6F6465E5
:100140006C0909203D2025530D0A00A7009D00449D
:10015000617461205261746509203D2025530D0AA8
:1001600000BE00B800B00044594E50442F464541EF
:100170005455524500434F4E464947090052465F89
:1001800053455455500052465F43480900454E5F61
:1001900052584144445200454E5F41410900525873
:1001A0005F50575F50302D360054585F41444452E1
:1001B000090052585F414444525F50322D3500527D
:1001C000585F414444525F50302D3100000102031A
:1001D000040555207475726E2E000D0A00203078CB
:1001E0002530327800255309203D000D0A002530C6
:1001F00032780020307800255309203D00020000AD
:100200000000250028002B0000000000240027002B
:100210002A00000000002300260029000404040432
:1002200004040404020202020202030303030303A0
:10023000010204081020408001020408102001027D
:100240000408102000000008000201000003040759
:100250000000000000000000291A11241FBECFEF8B
:10026000D8E0DEBFCDBF15E0A0E0B1E0E0EDF3E403
:1002700002C005900D92A630B107D9F726E0A6E09E
:10028000B5E001C01D92AE34B207E1F711E0CDE256
:10029000D1E004C02197FE010E948A1ACC32D10716
:1002A000C9F70E941F100C94E6210C940000FC0179
:1002B000918D828D981761F0828DDF01A80FB11D9D
:1002C0005D968C91928D9F5F9F73928F90E00895C1
:1002D0008FEF9FEF0895FC01918D828D981731F07B
:1002E000828DE80FF11D858D90E008958FEF9FEFCF
:1002F0000895FC01918D228D892F90E0805C9F4FA5
:10030000821B91098F739927089582E995E00E94D5
:10031000790121E0892B09F420E0822F0895FC0166
:10032000848DDF01A80FB11DA35ABF4F2C91848D7E
:1003300090E001968F739927848FA689B7892C93B3
:10034000A089B1898C9180648C93938D848D98134E
:1003500006C00288F389E02D80818F7D8083089517
:10036000EF92FF920F931F93CF93DF93EC0181E005
:10037000888F9B8D8C8D981305C0E889F9898081C1
:1003800085FD24C0F62E0B8D10E00F5F1F4F0F73FD
:100390001127E02E8C8DE8120CC00FB607FCFACFA7
:1003A000E889F989808185FFF5CFCE010E948F0110
:1003B000F1CF8B8DFE01E80FF11DE35AFF4FF08264
:1003C0000B8FEA89FB898081806207C0EE89FF89F3
:1003D0006083E889F98980818064808381E090E08E
:1003E000DF91CF911F910F91FF90EF900895CF93E0
:1003F000DF93EC01888D8823C9F0EA89FB8980812D
:1004000085FD05C0A889B9898C9186FD0FC00FB6FE
:1004100007FCF5CF808185FFF2CFA889B9898C913F
:1004200085FFEDCFCE010E948F01E7CFDF91CF9105
:10043000089580E090E0892B29F00E9485018111C8
:100440000C94000008950895CF93C82F682F82E977
:1004500095E00E94B0018C2FCC0F990BCF9108959D
:100460000C94DD1E0C94DD1E1F920F920FB60F929E
:1004700011242F933F934F935F936F937F938F93A9
:100480009F93AF93BF93EF93FF9382E995E00E9410
:100490008F01FF91EF91BF91AF919F918F917F91CC
:1004A0006F915F914F913F912F910F900FBE0F90E1
:1004B0001F9018951F920F920FB60F9211242F9331
:1004C0008F939F93EF93FF93E091A205F091A30583
:1004D0008081E091A805F091A90582FD12C090816C
:1004E0008091AB058F5F8F732091AC05821751F01F
:1004F000E091AB05F0E0EE56FA4F958F8093AB0597
:1005000001C08081FF91EF919F918F912F910F906A
:100510000FBE0F901F901895833081F028F4813022
:1005200099F08230A1F008958730A9F08830B9F0B1
:100530008430D1F4809180008F7D03C08091800051
:100540008F7780938000089584B58F7702C084B53B
:100550008F7D84BD08958091B0008F7703C0809116
:10056000B0008F7D8093B00008951F93CF93DF93E9
:10057000282F30E0F901EC5BFD4F8491F901E05D3B
:10058000FD4FD491F901E45EFD4FC491CC23C9F035
:10059000162F81110E948C02EC2FF0E0EE0FFF1F4E
:1005A000E250FE4FA591B4918FB7F894111105C098
:1005B0009C91ED2FE095E92302C0EC91ED2BEC939B
:1005C0008FBFDF91CF911F9108958230910538F050
:1005D000880F991F880F991F05970197F1F70895C4
:1005E0003FB7F89480918C0590918D05A0918E0570
:1005F000B0918F0526B5A89B05C02F3F19F0019635
:10060000A11DB11D3FBFBA2FA92F982F8827820F98
:10061000911DA11DB11DBC01CD0142E0660F771FE8
:10062000881F991F4A95D1F708958F929F92AF9294
:10063000BF92CF92DF92EF92FF926B017C010E94FA
:10064000F0024B015C01C114D104E104F104F1F0AA
:100650000E94F002DC01CB0188199909AA09BB09A3
:10066000883E9340A105B10570F321E0C21AD1087C
:10067000E108F10888EE880E83E0981EA11CB11CE9
:10068000C114D104E104F10419F7DDCFFF90EF901C
:10069000DF90CF90BF90AF909F908F9008950F9371
:1006A0001F930E94D809892B61F10E94F0020091EA
:1006B0008205109183052091840530918505DC0128
:1006C000CB01801B910BA20BB30B853F9140A10581
:1006D000B105B8F00E94D809892B99F00E94F00268
:1006E00060938205709383058093840590938505BC
:1006F000809190059091910501969093910580933A
:1007000090051F910F9108952FB7F8946091880577
:100710007091890580918A0590918B052FBF08956E
:100720001F920F920FB60F9211242F933F938F9326
:100730009F93AF93BF938091880590918905A09175
:100740008A05B0918B053091870523E0230F2D3763
:1007500020F40196A11DB11D05C026E8230F0296C5
:10076000A11DB11D2093870580938805909389056D
:10077000A0938A05B0938B0580918C0590918D058F
:10078000A0918E05B0918F050196A11DB11D80939A
:100790008C0590938D05A0938E05B0938F05BF9126
:1007A000AF919F918F913F912F910F900FBE0F901E
:1007B0001F9018951F920F920FB60F9211242F932E
:1007C0003F934F935F936F937F938F939F93AF93D9
:1007D000BF93EF93FF93E0910201F091030109951C
:1007E000FF91EF91BF91AF919F918F917F916F9109
:1007F0005F914F913F912F910F900FBE0F901F90DF
:1008000018951F920F920FB60F9211242F933F93BA
:100810004F935F936F937F938F939F93AF93BF9308
:10082000EF93FF93E0910001F09101010995FF9191
:10083000EF91BF91AF919F918F917F916F915F9158
:100840004F913F912F910F900FBE0F901F901895D1
:10085000CF93DF93EC0161E088810E94B50261E0F3
:100860008A810E94B50261E08C810E94B50261E03C
:100870008E81DF91CF910C94B5020F931F93CF938C
:10088000DF93EC018B0160E088810E94B50260E09B
:100890008A810E94B50260E08C810E94B50260E00E
:1008A0008E810E94B502B801110F880B990BDF9160
:1008B000CF911F910F910C9415030F931F93CF931A
:1008C000DF93EC018B0160E088810E94B50261E05A
:1008D0008A810E94B50260E08C810E94B50261E0CD
:1008E0008E810E94B502B801110F880B990B0E94EE
:1008F000150364E670E0CE01DF91CF911F910F9157
:100900000C943D04CF93DF93EC0161E088810E9459
:10091000B50260E08A810E94B50261E08C810E948C
:10092000B50260E08E81DF91CF910C94B502CF9338
:10093000DF93EC0160E088810E94B50261E08A816A
:100940000E94B50261E08C810E94B50260E08E8158
:10095000DF91CF910C94B502CF93DF93EC0161E06E
:1009600088810E94B50260E08A810E94B50260E041
:100970008C810E94B50261E08E81DF91CF910C9451
:10098000B502089560E0FC0182810C94B502FC017F
:10099000158614860C94C20461E0FC0182810C94DB
:1009A000B50221E030E0FC01358724870C94CC04AB
:1009B0000895FC018081918189130C94B5020895FA
:1009C000CF93DF93EC019CB59F7D9CBD9CB5937F3D
:1009D0009CBD9CB59C7F9CBD9DB591609DBD898152
:1009E0000E94B5028A899B89DF91CF910C94E50220
:1009F00061E00C94E00460E00C94E0048EBD000023
:100A00000DB407FEFDCF8EB508952F923F924F9201
:100A10005F926F927F928F929F92AF92BF92CF928E
:100A2000DF92EF92FF920F931F93CF93DF9300D04B
:100A30001F92CDB7DEB73C01D42E2DB63EB67F93C4
:100A40006F9387EF91E09F938F932B830E94341CC9
:100A50002B812D0D2A830F900F900F900F9083EF15
:100A6000482E81E0582E9EEEA92E91E0B92EFA81F3
:100A7000DF1609F450C08DB69EB6F3012485022F0F
:100A800010E08DB79EB7801B910B0FB6F8949EBFF8
:100A90000FBE8DBFEDB7FEB731967F01F1E0FD0DC2
:100AA000F983C3012B830E94FB048D2D8F710E945B
:100AB000FE0467012B812E0D2C1549F08FEF2B833F
:100AC0000E94FE04F60181936F012B81F5CFC301D3
:100AD0000E94F8045F924F920E94341C0E0D1F1D5D
:100AE0000F900F90015011090E151F0568F0F801C5
:100AF00080811F928F93BF92AF920E94341C0F90FF
:100B00000F900F900F90EECF0FB6F8949EBE0FBED1
:100B10008DBED980ACCF8BEE91E09F938F930E94D6
:100B2000341C0F900F900FB6F8943EBE0FBE2DBE32
:100B30000F900F900F90DF91CF911F910F91FF9029
:100B4000EF90DF90CF90BF90AF909F908F907F906D
:100B50006F905F904F903F902F900895EF92FF928B
:100B60001F93CF93DF931F92CDB7DEB77C016983CC
:100B70000E94FB046981862F0E94FE04182FC70182
:100B80000E94F804812F0F90DF91CF911F91FF9069
:100B9000EF900895EF92FF921F93CF93DF9300D0D1
:100BA000CDB7DEB77C014A8369830E94FB0469816B
:100BB000862F8F7180620E94FE04182F4A81842F35
:100BC0000E94FE04C7010E94F804812F0F900F902D
:100BD000DF91CF911F91FF90EF900895AF92BF9258
:100BE000CF92DF92EF92FF920F931F93CF93DF93F9
:100BF00000D000D000D0CDB7DEB76C01162F072F84
:100C00000E94840369837A838B839C831D830E8374
:100C1000F6012281222389F09F938F937F936F9314
:100C20000F931F938FE993E09F938F930E94A31BD1
:100C30000FB6F894DEBF0FBECDBFF601E080F180A5
:100C4000F7011581012F173008F006E0F7018681C2
:100C5000811102C0101B01C010E0C7010E94FB04FB
:100C600080EA0E94FE04CE0101965C01015030F042
:100C7000F50181915F010E94FE04F8CF112329F054
:100C800080E00E94FE041150F9CFC7010E94F804D1
:100C900061E0C7010E94D9046FEFC7010E94AE0551
:100CA0008073D1F360E0C7010E94D90440E767E098
:100CB000C7010E94CA0584FF0EC061EEC7010E94F1
:100CC000AE05F6018281882339F08EEB93E00E9415
:100CD000B91B80E001C081E026960FB6F894DEBF14
:100CE0000FBECDBFDF91CF911F910F91FF90EF907D
:100CF000DF90CF90BF90AF900895EF92FF921F9337
:100D0000CF93DF931F92CDB7DEB77C0169830E943A
:100D1000FB046981862F8F710E94FE048FEF0E9471
:100D2000FE04182FC7010E94F804812F0F90DF9155
:100D3000CF911F91FF90EF900895CF92DF92EF92A5
:100D4000FF920F931F93CF93DF931F92CDB7DEB720
:100D50007C01C22E7F936F9325EE31E03F932F935A
:100D600049830E94341C4981C40E0F900F900F904C
:100D70000F900DED11E04C1599F0DD24D394D40EB5
:100D8000642FC7010E947D061F928F931F930F93BC
:100D90000E94341C0F900F900F900F904D2DEBCFB1
:100DA0008AED91E09F938F930E94341C0F900F90D7
:100DB0000F90DF91CF911F910F91FF90EF90DF90F7
:100DC000CF900895CF92DF92EF92FF92CF93DF936F
:100DD000EC01603282E078070CF03DC077FD06C080
:100DE000653B71052CF064EB70E002C060E070E0E0
:100DF000898128E830E06901C81AD10887FDD394B9
:100E0000CC0CDD1CCC0CDD1C0D2C000CEE08FF08FE
:100E10008A8128E532E0281B310987FD3395220FAE
:100E2000331F220F331FC901330FAA0BBB0B9C01C9
:100E3000AD012C193D094E095F09DB010E94982183
:100E400024EB30E040E050E00E946E21C20ED31E41
:100E5000E41EF51EB60188818C3080F5998148E842
:100E600050E0491B510997FD5395440F551F440FFE
:100E7000551F6417750784F09A8128E532E0291B15
:100E8000310997FD3395220F331F220F331FAB011A
:100E9000261737070CF4A90142505109440F551F7A
:100EA0002FB7F89490E0FC01EE0FFF1F8E0F9F1FED
:100EB000FC01E95FFA4F528341832FBFDF91CF914D
:100EC000FF90EF90DF90CF900895CF92DF92EF9256
:100ED000FF920F931F93CF93DF937C01EB01FC01F3
:100EE0008085882331F084EB90E09C01261B370B32
:100EF000E901F701068117810C171D0724F0CC24A6
:100F0000CA94DC2C18C0CC24C394D12C14C00C1768
:100F10001D07C4F0B801F701828193810E94E206A7
:100F2000F70164817581072E000C880B990B0E94D4
:100F300015030C0D1D1DFFEFCF16DF0641F3C01783
:100F4000D10744F7F701D783C683DF91CF911F9173
:100F50000F91FF90EF90DF90CF9008951F920F9226
:100F60000FB60F9211242F933F934F935F936F937C
:100F70007F938F939F93AF93BF93EF93FF93809152
:100F8000860587FF05C010928500109284001BC063
:100F900020918605022E000C330B8091060590E00F
:100FA0002817390784F480918605082E000C990BC8
:100FB000FC01EE0FFF1F8E0F9F1FFC01E95FFA4F30
:100FC000808186FD15C0809186058F5F80938605A0
:100FD00020918605022E000C330B8091060590E0CF
:100FE00028173907C4F4809186058C3064F113C04A
:100FF00080918605082E000C990BFC01EE0FFF1F57
:101000008E0F9F1FFC01E95FFA4F808160E08F73B4
:101010000E94B502D8CF80918400909185000496FB
:1010200080349C4918F480E49CE905C080918400D8
:1010300090918500049690938900809388008FEFAB
:10104000809386053BC0209184003091850080917B
:101050008605082E000C990BFC01EE0FFF1F8E0F6A
:101060009F1FFC01E95FFA4F81819281820F931FDC
:10107000909389008093880080918605082E000C4B
:10108000990BFC01EE0FFF1F8E0F9F1FFC01E95F04
:10109000FA4F808186FF12C080918605082E000CD1
:1010A000990BFC01EE0FFF1F8E0F9F1FFC01E95FE4
:1010B000FA4F808161E08F730E94B502FF91EF913A
:1010C000BF91AF919F918F917F916F915F914F9160
:1010D0003F912F910F900FBE0F901F901895CF93B7
:1010E000DF936DED73E082E995E00E941D1064E6E8
:1010F00070E080913005909131050E943D0480910F
:10110000320590913305DC01ED91FC910480F5816D
:10111000E02D099580912D0590912E050E94CC041B
:10112000C0912B05D0912C0549E250E06CE575E4A7
:10113000CE010E94360B4CE55FEF63E475E4CE010F
:101140000E94360B42E550ED64E275E4CE010E9448
:10115000360B40E050ED62E075E4CE010E94360BA4
:101160004FE155ED62E175E4CE010E94360B4FE18F
:1011700051EF66E775E4CE010E94360B48E45DE965
:101180006EE275E4CE010E94360B44E150ED62E858
:1011900075E4CE010E94360B49E250E06CE575E43F
:1011A000CE010E94360B4CE55FEF63E475E4CE019F
:1011B0000E94360B42E550ED64E275E4CE010E94D8
:1011C000360B40E050ED62E075E4CE010E94360B34
:1011D0004FE155ED62E175E4CE010E94360B4FE11F
:1011E00051EF66E775E4CE010E94360B48E45DE9F5
:1011F0006EE275E4CE010E94360B44E150ED62E8E8
:1012000075E4CE010E94360B10922F0560E971E063
:1012100080913005909131050E945D04C0913005A8
:10122000D0913105CE010E9497046EE071E0CE01AD
:101230000E94560A61E973E082E995E00E941D1060
:101240008091320590913305DC01ED91FC91048091
:10125000F581E02D099580912D0590912E050E9434
:10126000C2048091300590913105DF91CF910C94AB
:101270008204EF92FF920F931F93CF93DF930E940C
:10128000240A092E000CAA0BBB0BE0900401F0907D
:1012900005018A3421E09207A105B1052CF41092D2
:1012A00005011092040117C085399240A105B105CE
:1012B0003CF481E090E090930501809304010BC021
:1012C00082E090E090930501809304010E94240A3B
:1012D00085399240DCF78091040190910501E81670
:1012E000F90691F18130910541F08230910541F08C
:1012F000892B41F401EF13E005C006EF13E002C0B3
:101300000CEF13E081E0E816F10449F022E0E21668
:10131000F10441F0EF2841F4C1EFD3E005C0C6EF7E
:10132000D3E002C0CCEFD3E01F930F93DF93CF93B2
:1013300081E094E09F938F930E94A31B0F900F90E6
:101340000F900F900F900F90DF91CF911F910F9101
:10135000FF90EF900895CF92DF92EF92FF920F935C
:101360001F93CF93DF936C017A018B01C0E0D0E033
:10137000CE15DF0589F0D8016D918D01D601ED9173
:10138000FC910190F081E02DC6010995892B11F4A3
:101390007E0102C02196ECCFC701DF91CF911F9152
:1013A0000F91FF90EF90DF90CF9008950E949E1BC9
:1013B000CF93DF93E6E4F2E08491E2E3F2E0D491AC
:1013C000EEE1F2E0C491CC2391F081110E948C02F5
:1013D000EC2FF0E0EE0FFF1FEE5EFD4FA591B491F4
:1013E000EC91ED2381E090E021F480E002C080E008
:1013F00090E0DF91CF910895E2E9F5E0A089B1890D
:1014000082E08C93A485B5851C92A685B78580E182
:101410008C93108EA489B58986E08C93A289B389B8
:101420008C9180618C93A289B3898C9188608C9314
:10143000A289B3898C9180688C930288F389E02D0E
:1014400080818F7D8083089581E480937C008091EA
:101450007A00806480937A0080917A0086FDFCCFC8
:10146000809178002091790090E0922B089590E08F
:10147000FC01E05DFD4F2491FC01E45EFD4F849191
:10148000882399F090E0880F991FFC01E85FFD4FD9
:10149000A591B491FC01E250FE4F859194918FB7D4
:1014A000F894EC91E22BEC938FBF08954F925F92EA
:1014B0006F927F928F929F92AF92BF92CF92DF9264
:1014C000EF92FF920F931F93CF93DF938C01EB0169
:1014D00010929105109290050E9484032B013C010B
:1014E000E12CF12C3EE1C32E34E0D32E4091900547
:1014F00050919105F80122853385429FC001439F99
:10150000900D529F900D1124969587958C179D07ED
:1015100008F06DC00E9484034B015C01809190052E
:1015200090919105E816F90659F1E0909005F09038
:1015300091058091900590919105209190053091B1
:1015400091059F938F93F80142855385249FC00195
:10155000259F900D349F900D11249F938F93DF93BF
:10156000CF93DF92CF920E94A31BEDB7FEB73896C0
:101570000FB6F894FEBF0FBEEDBF24013501B6CF04
:1015800084189508A608B708F1ED8F16F7E09F06B6
:10159000A104B10408F4AACFC8010E9428048091D4
:1015A00090059091910540919005509191059F93E0
:1015B0008F93F80122853385429FC001439F900D90
:1015C000529F900D11249F938F93DF93CF938DE5BE
:1015D00094E09F938F930E94A31BEDB7FEB73896BC
:1015E0000FB6F894FEBF0FBEEDBF80E02EC0C8015D
:1015F0000E9428048091900590919105409190055A
:10160000509191059F938F93F80122853385429FD6
:10161000C001439F900D529F900D11249F938F9373
:10162000DF93CF9384EC94E09F938F930E94A31B4E
:101630001092910510929005EDB7FEB738960FB64F
:10164000F894FEBF0FBEEDBF81E0DF91CF911F91F7
:101650000F91FF90EF90DF90CF90BF90AF909F9051
:101660008F907F906F905F904F9008954F925F9210
:101670006F927F928F929F92AF92BF92CF92DF92A2
:10168000EF92FF920F931F93CF93DF938C019A01F8
:10169000AB0160E074E284E799E40E94FD1A6B01FB
:1016A0007C019B01AC010E94911A9B01AC0160E09E
:1016B00070E08AE794E40E94FD1A20E030E048ECF4
:1016C00052E40E948E204B015C01C0E0D0E0BE01DC
:1016D0000D2E000C880B990B0E942F20A501940160
:1016E0000E94282087FF18C061E0F80180810E94D5
:1016F000B502C701B6010E946F1B2B013C01CB0153
:101700000E94E50260E0F80180810E94B502C201FA
:101710000E94E5022196DBCFDF91CF911F910F91BF
:10172000FF90EF90DF90CF90BF90AF909F908F9001
:101730007F906F905F904F9008950F931F93CF937A
:10174000DF93FC01A681B7819C918081892B8C93CA
:10175000A281B3819C918081809589238C938BE0B9
:1017600090E00197F1F7A281B3819C918081892B50
:101770008C9383E290E00197F1F7A281B3819C9171
:101780008081809589238C93A681B7819C918081EB
:10179000809589238C93A481B5819C918181892333
:1017A00009F056C0EF010E94F002288539858901B1
:1017B00020E030E00855194E2F4F3F4FDC01CB01A0
:1017C000800F911FA21FB31F8A879B87AC87BD879D
:1017D000EC81FD8190818981892361F40E94F0026E
:1017E0000A851B852C853D850617170728073907AD
:1017F00078F72EC00E94F00228853985DC01CB01E4
:10180000820F931FA11DB11D8A879B87AC87BD875F
:10181000EC81FD8190818981892361F00E94F00231
:101820000A851B852C853D8506171707280739076C
:1018300078F70EC00E94F0022885398525503109BD
:101840004A855B85241B350BC901860F971F02C093
:1018500080E090E0DF91CF911F910F9108952F923A
:101860003F924F925F926F927F928F929F92AF9230
:10187000BF92CF92DF92EF92FF920F931F93CF937D
:10188000DF93CDB7DEB73C01162F2DB63EB62DB790
:101890003EB742E0649F2019310911240FB6F89435
:1018A0003EBF0FBE2DBF8DB79EB701962C01EDB781
:1018B000FEB71282118200E088EE882E83E0982E17
:1018C000A12CB12C011708F051C00E94F0026B014D
:1018D0007C01C3010E949D0B0097F9F0011102C029
:1018E00020E012C0202FF201E20FF11DE20FF11DE6
:1018F000DF0112974D915C914817590728F45183E5
:101900004083215081F7ECCFF201E20FF11DE20F8D
:10191000F11D918380830F5F01C01150011790F674
:101920000E94F002DC01CB018C199D09AE09BF09B0
:1019300088349147A105B10528F60E94F00228E4F9
:10194000C20E21E7D21EE11CF11CA7019601261B45
:10195000370B480B590BCA01B901A50194010E942C
:101960004C21CA01B9010E941503ACCF1E7FF201C0
:10197000E10FF11D6081718180E090E00FB6F89475
:101980003EBE0FBE2DBEDF91CF911F910F91FF90F4
:10199000EF90DF90CF90BF90AF909F908F907F900F
:1019A0006F905F904F903F902F9008951F920F92ED
:1019B0000FB60F9211242F933F934F935F936F9322
:1019C0007F938F939F93AF93BF93EF93FF938091F8
:1019D000400690914106A0914206B0914306892BA2
:1019E0008A2B8B2B59F180913F06E0913D06F091B7
:1019F0003E06908189278083809140069091410620
:101A0000A0914206B0914306181619061A061B0645
:101A10000CF03DC08091400690914106A091420695
:101A2000B09143060197A109B109809340069093B4
:101A30004106A0934206B093430629C08091060157
:101A4000EDEFF1E0E4919FEF90930601E130B9F002
:101A500098F0E230C9F4909170009D7F90937000EF
:101A600091E09093B0009091B100987F9460909332
:101A7000B1001092B30008C010926E0005C09091A2
:101A80006F009D7F90936F0060E00E94B502FF9110
:101A9000EF91BF91AF919F918F917F916F915F91E6
:101AA0004F913F912F910F900FBE0F901F9018955F
:101AB0003F924F925F926F927F928F929F92AF92DE
:101AC000BF92CF92DF92EF92FF920F931F93CF932B
:101AD000DF9300D000D0CDB7DEB790910601981704
:101AE00021F09F3F09F035C204C0EDEFF1E03490E2
:101AF00081C080930601EDEFF1E0E491EF3F09F43E
:101B000028C2E13031F1E23009F44BC0E11171C07B
:101B100014BC15BC94B5926094BD95B5916095BD0B
:101B2000A82FB0E0FD01E45EFD4FE491F0E0EE0F80
:101B3000FF1FE250FE4F059114911093340600935D
:101B40003306FD01E05DFD4FE491E0933206312C58
:101B500053C0109280001092810090918100986093
:101B60009093810090918100916090938100A82FC3
:101B7000B0E0FD01E45EFD4FE491F0E0EE0FFF1FE9
:101B8000E250FE4F059114911093310600933006F8
:101B9000FD01E05DFD4FE491E0932F063324339483
:101BA0002BC01092B0001092B1009091B0009260E2
:101BB0009093B0009091B10091609093B100A82FE4
:101BC000B0E0FD01E45EFD4FE491F0E0EE0FFF1F99
:101BD000E250FE4F0591149110933E0600933D068E
:101BE000FD01E05DFD4FE491E0933F0602E0302E01
:101BF00003C03E2E37FCADC129013A018B010E9482
:101C0000370A4801A12CB12C832D8D7F09F0BBC070
:101C100060E072E18AE790E0A50194010E946E21E4
:101C200029833A834B835C8369017A0121E0C21ADC
:101C3000D108E108F1088FEFC816D104E104F104DE
:101C400009F008F44CC060E472E48FE090E0A50174
:101C500094010E946E2169017A01E1E0CE1AD10857
:101C6000E108F108F2E03F1220C02FEFC216D104C4
:101C7000E104F10409F008F46AC160E970ED83E061
:101C800090E0A50194010E946E2169017A0181E032
:101C9000C81AD108E108F108EFEFCE16D104E1042B
:101CA000F10409F0D0F583E067C0FFEFCF16D1044F
:101CB000E104F104B1F0A8F068E478EE81E090E08E
:101CC000A50194010E946E2169017A0181E0C81A80
:101CD000D108E108F108332009F4DFC02FC181E009
:101CE00001C082E03320A1F047C089819A81AB8195
:101CF000BC812AE0B595A795979587952A95D1F748
:101D00006C017D0121E0C21AD108E108F10885E0EB
:101D100095B5987F892B85BD6FC068E478EE81E02A
:101D200090E0A50194010E946E2169017A01F1E021
:101D3000CF1AD108E108F1082FEFC216D104E1044F
:101D4000F10409F008F4A7C064E274EF80E090E0C9
:101D5000A50194010E946E2169017A01E1E0CE1A89
:101D6000D108E108F108FFEFCF16D104E104F10436
:101D700011F008F0B4C085E09091B100987F892BF4
:101D80008093B10039C060E072E18AE790E0A5017C
:101D900094010E946E2169017A0181E0C81AD1087C
:101DA000E108F108C114D104E1E0EE06F10488F085
:101DB00068E478EE81E090E0A50194010E946E2134
:101DC00069017A01F1E0CF1AD108E108F10893E046
:101DD00001C091E021E032120FC080918100887F24
:101DE000892B80938100411451046104710449F4EA
:101DF0002FEF3FEFA9012DC041145104610471047C
:101E000071F0D801AA0FBB1FA30192010E948D217E
:101E100028EE33E040E050E00E944C2103C02FEF59
:101E20003FEFA90181E03816A1F0E2E03E1619F17A
:101E300031108FC0C7BC2093390630933A064093C7
:101E40003B0650933C0680916E00826080936E004A
:101E500080C0D0928900C0928800209335063093CC
:101E60003606409337065093380680916F008260A3
:101E700080936F006EC0C092B300209340063093F1
:101E80004106409342065093430680917000826061
:101E9000809370005EC084E06FCFFFEFCF16D10457
:101EA000E104F104D1F0C8F062E17AE780E090E06B
:101EB000A50194010E946E2169017A0181E0C81A8E
:101EC000D108E108F108EFEFCE16D104E104F104E6
:101ED00011F008F00ACF84E01BCF83E019CF62E154
:101EE0007AE780E090E0A50194010E946E216901EB
:101EF0007A0181E0C81AD108E108F108EFEFCE16A7
:101F0000D104E104F104C1F0B8F089819A81AB8178
:101F1000BC814AE0B595A795979587954A95D1F7E5
:101F20006C017D0121E0C21AD108E108F1083320DB
:101F300009F4EDCE87E020CF86E0D4CEFFEFCF16B8
:101F4000D104E104F10409F050F684E0CBCE82E044
:101F500013CF0F900F900F900F90DF91CF911F91A3
:101F60000F91FF90EF90DF90CF90BF90AF909F9038
:101F70008F907F906F905F904F903F900895611584
:101F8000710579F0FB0101900020E9F73197AF016D
:101F9000461B570BDC01ED91FC910280F381E02D93
:101FA000099480E090E008954F925F926F927F9243
:101FB000EF92FF920F931F93CF93DF93CDB7DEB7CE
:101FC000A1970FB6F894DEBF0FBECDBF7C01FA011A
:101FD000CB0119A2223008F42AE08E010F5D1F4FB9
:101FE000422E512C612C712CBF01A30192010E9441
:101FF0004C21F901CA01015011096A3014F4605DE5
:1020000001C0695CD8016C93232B242B252B61F72D
:10201000B801C7010E94BF0FA1960FB6F894DEBFAA
:102020000FBECDBFDF91CF911F910F91FF90EF9029
:102030007F906F905F904F9008950C94BF0FCF9357
:10204000DF93CDB7DEB7C855D1090FB6F894DEBF20
:102050000FBECDBF789484B5826084BD84B58160A5
:1020600084BD85B5826085BD85B5816085BD809163
:102070006E00816080936E001092810080918100DB
:1020800082608093810080918100816080938100D3
:10209000809180008160809380008091B100846095
:1020A0008093B1008091B00081608093B0008091F6
:1020B0007A00846080937A0080917A0082608093B5
:1020C0007A0080917A00816080937A0080917A0012
:1020D000806880937A001092C10010927605109269
:1020E00077051092780510927905109244051092A8
:1020F0004505109246051092470560ED77E080E0B7
:1021000090E00E94150382E995E090937505809315
:1021100074050E94FC090E948403009144051091FB
:1021200045052091460530914705DC01CB01801B18
:10213000910BA20BB30B8197A105B10538F463E0B5
:1021400070E080E090E00E941503E5CF0E948403D8
:102150006093440570934505809346059093470529
:102160006BE471E080917405909175050E941D10DB
:102170006AE070E080E090E00E941503FF24F39491
:10218000F092480560E070E084E292E00E94E91B72
:102190000E94FC096DE571E082E995E00E941D1046
:1021A0000E9439096AE671E082E995E00E941D10FB
:1021B0008FE493E090930101809300018091690086
:1021C000836080936900E89A6BE871E082E995E0AA
:1021D0000E941D1089E090E00E94481E8C0186E05C
:1021E00090E0D80111969C938E9385E090E015962F
:1021F0009C938E93149717961C921E92169718967E
:10220000FC9283E090E00E94481E7C01209106052C
:102210002C30A0F481E0820F80930605F701208323
:1022200030E0F901EE0FFF1F2E0F3F1FF901E95FAC
:10223000FA4F88EB9BE09283818303C08FEFD70135
:102240008C93F801F382E28210933E0500933D05E2
:10225000D7018C918C3008F052C086E00E94370A7A
:10226000F7018081E82FF0E09F01220F331FE20F7A
:10227000F31FE95FFA4F9081907C96609083D701BD
:1022800011961C92119712961C926CE00E94561A9D
:10229000BCE08B9FB001112440E050E09A01260F72
:1022A000371FF901EE0FFF1F2E0F3F1FF901E95FE6
:1022B000FA4F908196FD16C04F5F5F4F4C3051052D
:1022C00069F781110FC01092800082E08093810035
:1022D0001092850010928400B19A80916F00826004
:1022E00080936F00D701EC91F0E0CF01880F991F28
:1022F000E80FF91FE95FFA4F8081806480836AE507
:1023000070E0F801828193810E94E2068AE590E004
:10231000D80117969C938E93169767E971E082E92E
:1023200095E00E941D1082E090E00E94481E8C0102
:102330008EE090E0F8019183808321E030E040E07E
:1023400050E064E670E088E00E94580D10932C0580
:1023500000932B0565EA71E082E995E00E941D106B
:1023600088E090E00E94481E8C018CE291E0D80148
:1023700015969C938E93149785E090E013969C930A
:102380008E93129784E090E08D939C938EE090E082
:102390000E94481EDC01E4E3F2E0E491EC93E5E303
:1023A000F2E0E4911196EC93119720E232E0F9010A
:1023B0008491E82FF0E0EE0FFF1FE250FE4F859171
:1023C000949113969C938E931297E1E2F2E0E4913C
:1023D000F0E0EE0FFF1FEE5EFD4F85919491159694
:1023E0009C938E931497F9012491E22FF0E0EE0F65
:1023F000FF1FE85FFD4F8591949117969C938E93F4
:10240000169785E093E419969C938E931897F8019C
:10241000B783A683109342050093410566EB71E0F4
:1024200082E995E00E941D108CE090E00E94481E19
:102430008C0180E190E0D80111969C938E9381E10C
:1024400090E013969C938E93129782E190E01596FC
:102450009C938E93149723E130E017963C932E9330
:10246000169724E130E019963C932E9318971B960B
:102470009C938E931A9780E10E94370AF80182811B
:102480000E94370AD80114968C910E94370AF801ED
:1024900086810E94370A60E070E0C8010E943D0416
:1024A000109331050093300564EC71E082E995E00A
:1024B0000E941D1083E090E00E94481E7C0186E18E
:1024C00090E00E94481E8C0187E0D8018C9388E040
:1024D00011968C93119714961C92149780E215967E
:1024E0008C93159716961C92169785E01C968C93E4
:1024F00085E090E0A0E0B0E0F801828B938BA48BA4
:10250000B58B1782D7010D931C9387E00E94370A81
:10251000F8018181908198130E94370ADFB6F89400
:1025200080913405811124C0E6E2F2E08491EAE36F
:10253000F2E09491E82FF0E0EE0FFF1FE85FFD4F0F
:10254000A591B491EC91E92321F461E08AE00E9425
:10255000B5028AE00E94370A8CB580618CBD8CB5CB
:1025600080648CBD8DE00E94370A8BE00E94370AA0
:10257000809134058F5F80933405DFBE60E0C80131
:102580000E94D90461E0C8010E94E00465E070E0A7
:1025900080E090E00E9415034CE060E0C8010E94DA
:1025A000CA054FE564E0C8010E94CA0566E0C8019B
:1025B0000E947D06877D8062D82E8BE990E0A0E0A6
:1025C000B0E0F80186879787A08BB18B4D2D66E030
:1025D000C8010E94CA0566E0C8010E947D068D15EB
:1025E00009F479C666E0C8010E947D0666E0C8016C
:1025F0000E947D0645E550E060E070E0D8011E963F
:102600004D935D936D937C935197482F477D66E082
:10261000C8010E94CA0566E0C8010E947D06C80183
:102620000E94FB0480E50E94FE0483E70E94FE04F2
:10263000C8010E94F80440E06DE1C8010E94CA058B
:1026400040E06CE1C8010E94CA0540E767E0C801AC
:102650000E94CA054CE465E0C8010E94CA0562EE0A
:10266000C8010E94AE0561EEC8010E94AE0560E09F
:10267000C8010E947D0681FD0CC0482F426060E0C9
:10268000C8010E94CA0565E070E080E090E00E9409
:10269000150360E0C8010E947D06482F4E7F60E070
:1026A000C8010E94CA0581E0F7018283008111817F
:1026B00066E0C8010E947D06887F482F436066E07F
:1026C000C8010E94CA054FE361E0D7018D919C913A
:1026D0000E94CA0541E164E0F701808191810E9476
:1026E000CA05D70112968C911297882309F450C01D
:1026F000CD90DC9081E72A968FAF2A979DEC2B96A0
:102700009FAF2B978BEA2C968FAF2C972D969FAF70
:102710002D972E968FAF2E972F961FAE2F976096E0
:102720001FAE609761961FAE6197F6019484C60153
:102730000E94FB048AE20E94FE048E01075B1F4F89
:102740005801802E900E9A1431F0D5018D915D01C3
:102750000E94FE04F8CFC6010E94F804F601B4847A
:10276000C6010E94FB0480E30E94FE04B80CB01670
:1027700031F0D8018D918D010E94FE04F8CFC60181
:102780000E94F804F601458161E1C6010E94CA0574
:10279000D7010D911C916FEFC8010E94AE05282F43
:1027A00030E0982F91701F929F9335952795277051
:1027B00033273F932F9384FB992790F91F929F9380
:1027C00085FB992790F91F929F9386FB992790F993
:1027D0001F929F931F928F9384EC90E09F938F930F
:1027E0000E94341C22E04AE06FEB71E0C8010E94B5
:1027F000050524E04CE062EB71E0C8010E949D06F3
:1028000021E040E169EA71E0C8010E94050526E087
:1028100041E16EE971E0C8010E949D0621E041E0BE
:1028200067E971E0C8010E949D0621E042E06DE881
:1028300071E0C8010E949D0621E045E066E871E074
:10284000C8010E949D0621E046E06DE771E0C801E5
:102850000E949D0621E040E065E771E0C8010E940A
:102860009D0622E04CE167E671E0C8010E949D06EA
:1028700066E0C8010E947D0688720FB6F894DEBF3C
:102880000FBECDBF803241F021E090E0883009F0EA
:1028900020E0E22FF92F02C0E2E0F0E0EE0FFF1F90
:1028A000EF59FE4F859194919F938F938FE491E020
:1028B0009F938F930E94341CD8011496EC91F0E002
:1028C000EE0FFF1FE55BFE4F859194919F938F93D1
:1028D0008CE391E09F938F930E94341C60E0C801C9
:1028E0000E947D06D82E61E0C8010E947D060FB6C9
:1028F000F894DEBF0FBECDBFD3FC02C0882329F001
:10290000D2FC06C0E1E0F0E005C0E0E0F0E002C08B
:10291000E2E0F0E0EE0FFF1FEA5CFE4F859194913C
:102920009F938F9383E291E09F938F930E94341C37
:1029300066E0C8010E947D068670E82FF0E0E55E43
:10294000FE4F859194919F938F938AE091E09F939E
:102950008F930E94341CD7010D911C9160E0C80137
:102960000E94D904F801868597850E94E5026DE1F1
:10297000C8010E947D060FB6F894DEBF0FBECDBF22
:1029800081FF0BC0D8011E968D919C911F970E94CC
:10299000E50261EEC8010E94AE0560E0C8010E9438
:1029A0007D06482F4E7F60E0C8010E94CA0562E0A4
:1029B000C8010E947D06ECECF1E0E49141E050E0BA
:1029C00001C0440FEA95EAF7482B62E0C8010E9473
:1029D000CA05F0924005E0923F0568ED71E082E99A
:1029E00095E00E941D108EE090E00E94481E8C0130
:1029F000F7E3EF2EF1E0FF2EFC01F182E08289E0A7
:102A00000E94370A89E090E0D80113969C938E9338
:102A100012978BE291E011969C938E9388EC90E054
:102A200015969C938E9314971B961C921E921A9740
:102A3000F801168217821086118615861486109367
:102A4000330500933205C8010E94C7046BEE71E0A4
:102A500082E995E00E941D1084E090E00E94481EEB
:102A60008C01DC01ED92FC928AE00E94370A8AE038
:102A700090E0F8019383828310932E0500932D0537
:102A8000C8010E94CC046CEF71E082E995E00E94DD
:102A90001D109E012F5F3F4F7901CE01479663962F
:102AA0009FAF8EAF6397DE0195966596BFAFAEAFD1
:102AB00065970E948403672B682B692B09F010C46B
:102AC0000E948403623071058105910508F008C4F5
:102AD0003DC00E9484036093440570934505809334
:102AE0004605909347056CE072E0809174059091E3
:102AF00075050E941D1064E172E08091740590914B
:102B000075050E941D100E948403AB01BC012AE0E0
:102B100080917405909175050E94D40F66E172E072
:102B200080917405909175050E941D1062E070E01F
:102B300080E090E00E9415036AE070E080E090E0A1
:102B40000E94150380914805811123C40E94390910
:102B50008091040190910501009721F0019709F4FB
:102B6000CDC0B6C38091320590913305DC01ED9163
:102B7000FC910480F581E02D099580912D059091BF
:102B80002E050E94CC0460E070E080913F0590919A
:102B900040050E94EE056FE272E082E995E00E9436
:102BA0001D1000913D0510913E0567E870E0C801D9
:102BB0000E9465076DE270E0C8010E9465076AE542
:102BC00070E0C8010E9465076BE372E082E995E05E
:102BD0000E941D100091300510913105C8010E941E
:102BE000820468EE73E080E090E00E94150364E6E2
:102BF00070E0C8010E943D046BE472E082E995E058
:102C00000E941D1068EE73E08091300590913105AF
:102C10000E945D0460E672E082E995E00E941D106A
:102C20000091300510913105C8010E94970468EEAB
:102C300073E080E090E00E94150364E670E0C80154
:102C40000E943D0462E772E082E995E00E941D1057
:102C50000091300510913105C8010E94AC0468EE66
:102C600073E080E090E00E94150364E670E0C80124
:102C70000E943D0463E872E082E995E00E941D1025
:102C800086E1E1E1F1E0D70101900D928A95E1F74B
:102C9000C0902B05D0902C058701F80161917191AE
:102CA0008F0126E930E040E050E0D6018C910E948F
:102CB000580D67E970E080E090E00E94150363968C
:102CC000AEACBFAC63970A151B0539F7809132058E
:102CD00090913305DC01ED91FC910680F781E02DA8
:102CE000099580912D0590912E050E94C20460E700
:102CF00077E180E090E00E941503EAC2009132057E
:102D000010913305F801C484D584F1E0CF16D104C5
:102D100079F50E948403D80116968D909D90AD9010
:102D2000BC901997AB01BC01481959096A097B0984
:102D300014968D919C911597092E000CAA0BBB0B34
:102D400084179507A607B70798F4F801828593853D
:102D5000892B09F075C3C8010E94CC04F801D38601
:102D6000C2860E948403F8016683778380879187F7
:102D7000C0904105D0904205D60116968D919C9148
:102D800017970E949D0B69E370E00E94621A8B0105
:102D9000672B19F4F60104811581083211050CF036
:102DA00050C280913005909131050E942804109204
:102DB0002F058091320590913305DC01ED91FC9156
:102DC0000680F781E02D099580912D0590912E05C3
:102DD0000E94CC04C0902B05D0902C0524E630E056
:102DE00040E050E06FE971E0F60180810E94580DEB
:102DF00065E670E080E090E00E94150360E570E019
:102E000080E090E00E94150324E630E040E050E0CE
:102E100067E171E0D6018C910E94580D65E670E083
:102E200080E090E00E94150360E570E080E090E0B3
:102E30000E941503B80180913F05909140050E94C2
:102E4000EE0560E972E082E995E00E941D1084E2DF
:102E50006596EEADFFAD6597A82E1192AA94E9F79D
:102E6000D7011D928A95E9F7412C512C88248A9428
:102E7000982CC12CD12CB60180913D0590913E0536
:102E80000E946507009141051091420562E0F8013A
:102E9000868197810E942F0CCB0169E370E00E942C
:102EA000621A3B01672B29F4D80114966D907C902F
:102EB0001597C6016AE070E00E94761A5B01FB017B
:102EC000EE0FFF1FEE0DFF1D75A264A27F926F92A1
:102ED000DF92CF92BF92AF92A6E9B2E0BF93AF93D9
:102EE0000E94A31B8501015011090FB6F894DEBFA3
:102EF0000FBECDBF38E26316710414F0A30102C007
:102F000048E15CEF950121503048220F331F170133
:102F1000220E331E8AE08A9D30018B9D700C112495
:102F200095012F5F3F4F67963FAF2EAF679767962C
:102F3000AEACBFAC6797A016B1060CF45AC00F3FF9
:102F40003FEF130709F44CC0D101AD90BC9011972D
:102F5000A40EB51EAD92BC92BF92AF927F926F92BB
:102F6000C30144979F938F931F930F935F934F9346
:102F7000ABEBB2E0BF93AF9368964FAF689769969B
:102F80005FAF69970E94A31B0FB6F894DEBF0FBE18
:102F9000CDBF68964FAD689769965FAD69974A1443
:102FA0005B04F4F4BF92AF921F930F93A8EFB2E0CB
:102FB000BF93AF9368964FAF689769965FAF699775
:102FC0000E94A31B0F900F900F900F900F900F90E7
:102FD0002501480169965FAD699768964FAD68977E
:102FE0000F5F1F4FF2E02F0E311C2AE0620E711CA2
:102FF0009ECF2AE0C20ED11C34EBC316D10409F0D7
:103000003ACF3701CE0185966C0180E090E023E253
:10301000A22E23E0B22E8C01065F1F4F0E3B11053E
:1030200029F1D3016C9111967C91B2E06B0E711C69
:103030009C012A503109F60140815181F2E0CF0E06
:10304000D11C7F936F931F930F933F932F935F93A5
:103050004F939F938F93BF92AF920E94A31B0FB683
:10306000F894DEBF0FBECDBFC801D5CF5F924F929F
:103070009F928F9280E693E09F938F930E94A31B71
:103080000F900F900F900F900F900F903FEF8316BF
:10309000930609F447C0F401EE0FFF1FEE0DFF1D6C
:1030A0008081918118161906ECF58AE0889D8001CF
:1030B000899D100D1124B80180913D0590913E0528
:1030C0000E9465071F930F9384E893E09F938F936B
:1030D0000E94A31B0F900F900F900F90C09030058F
:1030E000D09031056CE271E0C6010A3511058CF40F
:1030F0000E945D04C6010E94AC046AE570E0601B9A
:10310000710BC6010E94560A811141C00E946F08CE
:103110003EC00E945D04C6010E949704B8016A5532
:103120007109EFCF02ED11E0F8016491611120C047
:103130006CE272E082E995E00E94BF0F6AE570E000
:1031400080913D0590913E050E94650700913005F4
:10315000109131056CE271E0C8010E945D04C80164
:103160000E9497046EE071E0C8010E94560A0FC0E9
:10317000E0919205F09193050190F081E02D82E9B4
:1031800095E009950F5F1F4F892B71F6D1CF6AE546
:1031900070E080913D0590913E050E946507009189
:1031A00041051091420565E0D80116968D919C91DC
:1031B00017970E942F0CCB0169E370E00E94621AFE
:1031C0006115710519F4F801648175816932710521
:1031D000C4F161E973E082E995E00E941D108091DD
:1031E000320590913305DC01ED91FC910480F5816D
:1031F000E02D099580912D0590912E050E94C20425
:1032000080913005909131050E9482040E948403D0
:103210006093390570933A0580933B0590933C0584
:103220008091900590919105A0E0B0E080933505E4
:1032300090933605A0933705B093380581E08093CD
:103240002F0580912F05882309F442C00E94840332
:103250000091390510913A0520913B0530913C05CC
:10326000DC01CB01801B910BA20BB30B853F91407E
:10327000A105B10568F1809190059091910540916B
:103280003505509136056091370570913805A0E0FD
:10329000B0E084179507A607B70711F40E946F08DE
:1032A0000E9484036093390570933A0580933B052F
:1032B00090933C058091900590919105A0E0B0E03D
:1032C0008093350590933605A0933705B093380564
:1032D0000E941902EECB81E0D80114968C9382C92A
:1032E0000E94840360937E0570937F058093800520
:1032F0009093810500917A0510917B0520917C05C2
:1033000030917D05601771078207930740F4609341
:103310007A0570937B0580937C0590937D050091E1
:103320007A0510917B0520917C0530917D055B012C
:103330006C01A01AB10AC20AD30A960185010A3F9C
:1033400011052105310508F401CC60937A057093CD
:103350007B0580937C0590937D050E9484030091FA
:103360004405109145052091460530914705DC0143
:10337000CB01801B910BA20BB30B8197A105B1056B
:1033800008F0A7CB63E070E080E090E00E941503B6
:10339000E4CF8091740590917505DC01ED91FC916D
:1033A0000480F581E02D0995892B99F380917405AE
:1033B00090917505DC01ED91FC910480F581E02D83
:1033C0000995181619060CF0C1CB809174059091DF
:1033D0007505DC01ED91FC910680F781E02D0995E2
:1033E00099278336910551F08637910509F4AECBC4
:1033F00088359105D9F610924805D8CF6FE172E073
:1034000080917405909175050E941D102AE041E09D
:1034100050E060E070E080917405909175050E9425
:10342000D40F66E272E080917405909175050E9458
:103430001D1062E370E080E090E00E94150386CBEF
:10344000C8010E94C204D8011B961C921E921A97B2
:1034500088CCE2E9F5E01382128288EE93E0A0E0E6
:10346000B0E084839583A683B7838FE391E0918353
:10347000808385EC90E09587848784EC90E0978743
:10348000868780EC90E0918B808B81EC90E0938B31
:10349000828B82EC90E0958B848B86EC90E0978B0E
:1034A000868B118E128E138E148E0895991B79E0DF
:1034B00004C0991F961708F0961B881F7A95C9F7C4
:1034C00080950895AA1BBB1B51E107C0AA1FBB1F13
:1034D000A617B70710F0A61BB70B881F991F5A95A0
:1034E000A9F780959095BC01CD01089597FB072E13
:1034F00016F4009407D077FD09D00E94621A07FCE9
:1035000005D03EF4909581959F4F089570956195F3
:103510007F4F0895EE0FFF1F0590F491E02D099461
:103520005058BB27AA270E94A81A0C9412210E9467
:10353000042138F00E940B2120F039F49F3F19F448
:1035400026F40C9401210EF4E095E7FB0C94FB208B
:10355000E92F0E94232158F3BA17620773078407E3
:10356000950720F079F4A6F50C9445210EF4E0952A
:103570000B2EBA2FA02D0B01B90190010C01CA012D
:10358000A0011124FF27591B99F0593F50F4503ED8
:1035900068F11A16F040A22F232F342F4427585FCA
:1035A000F3CF469537952795A795F0405395C9F7E2
:1035B0007EF41F16BA0B620B730B840BBAF091509A
:1035C000A1F0FF0FBB1F661F771F881FC2F70EC039
:1035D000BA0F621F731F841F48F48795779567950C
:1035E000B795F7959E3F08F0B0CF9395880F08F0F8
:1035F0009927EE0F9795879508950E94111B0C94BB
:1036000012210E940B2158F00E94042140F029F45D
:103610005F3F29F00C94FB2051110C9446210C942F
:1036200001210E94232168F39923B1F3552391F3DB
:10363000951B550BBB27AA2762177307840738F021
:103640009F5F5F4F220F331F441FAA1FA9F335D07E
:103650000E2E3AF0E0E832D091505040E695001C32
:10366000CAF72BD0FE2F29D0660F771F881FBB1FEC
:10367000261737074807AB07B0E809F0BB0B802DCA
:10368000BF01FF2793585F4F3AF09E3F510578F0F6
:103690000C94FB200C9446215F3FE4F3983ED4F356
:1036A000869577956795B795F7959F5FC9F7880FCA
:1036B000911D9695879597F90895E1E0660F771F1C
:1036C000881FBB1F621773078407BA0720F0621BAD
:1036D000730B840BBA0BEE1F88F7E09508950E94D8
:1036E0002B2188F09F5798F0B92F9927B751B0F048
:1036F000E1F0660F771F881F991F1AF0BA95C9F776
:1037000014C0B13091F00E944521B1E008950C94AD
:103710004521672F782F8827B85F39F0B93FCCF360
:10372000869577956795B395D9F73EF490958095F2
:10373000709561957F4F8F4F9F4F089581E090E086
:10374000F8940C94E621A0E0B0E0E9EAFBE10C94E7
:10375000B021AE014B5F5F4FFA0161917191AF01F2
:1037600080914606909147060E945A1CE2E00C9414
:10377000CC210F931F93CF93DF93E0914606F091F6
:103780004706238121FF1BC08C01D0E0C0E0F80177
:1037900081918F016091460670914706DB01189672
:1037A000ED91FC911997882331F00995892B79F3D4
:1037B000DFEFCFEFECCF8AE00995892B19F08FEF7F
:1037C0009FEF02C08D2F9C2FDF91CF911F910F9102
:1037D00008950F931F93CF93DF93009731F46115F2
:1037E000710519F480E090E03AC08B01EC016EE0C5
:1037F00070E081E090E00E942C1EFC01892B91F387
:1038000080E883830115110571F01387028781E831
:1038100083838091440690914506892B21F4F0938F
:103820004506E09344062097C9F0D187C08783817D
:10383000826083838091460690914706892B71F4BC
:10384000F0934706E093460680914806909149061A
:10385000892B21F4F0934906E0934806CF01DF91CC
:10386000CF911F910F910895A0E0B0E0EAE3FCE151
:103870000C94AE21AE01495F5F4FDA016D917D91ED
:10388000AD0104E416E0F80182819381DC01139616
:103890002C911397286013962C930E945A1CD801E0
:1038A0001296ED91FC9113972381277F2383E4E007
:1038B0000C94CA21ACE0B0E0E0E6FCE10C94A0215D
:1038C0007C016B018A01FC0117821682838181FFD2
:1038D000BDC1CE0101964C01F7019381F60193FD24
:1038E000859193FF81916F01882309F4ABC18532E3
:1038F00039F493FD859193FF81916F01853229F40D
:10390000B70190E00E94921FE7CF512C312C20E0AC
:103910002032A0F48B3269F030F4803259F08332D7
:1039200069F420612CC08D3239F0803339F4216084
:1039300026C02260246023C0286021C027FD27C044
:1039400030ED380F3A3078F426FF06C0FAE05F9E7B
:10395000300D1124532E13C08AE0389E300D1124EF
:10396000332E20620CC08E3221F426FD6BC1206400
:1039700006C08C3611F4206802C0883641F4F60186
:1039800093FD859193FF81916F018111C1CF982F94
:103990009F7D9554933028F40C5F1F4FFFE3F9830C
:1039A0000DC0833631F0833771F0833509F05BC089
:1039B00022C0F801808189830E5F1F4F4424439405
:1039C000512C540115C03801F2E06F0E711CF80142
:1039D000A080B18026FF03C0652D70E002C06FEFAC
:1039E0007FEFC5012C870E94871F2C0183012C8546
:1039F0002F77222E17C03801F2E06F0E711CF801EC
:103A0000A080B18026FF03C0652D70E002C06FEF7B
:103A10007FEFC5012C870E94751F2C012C85206823
:103A2000222E830123FC1BC0832D90E048165906EB
:103A3000B0F4B70180E290E00E94921F3A94F4CF74
:103A4000F50127FC859127FE81915F01B70190E088
:103A50000E94921F31103A94F1E04F1A510841141C
:103A6000510471F7E5C0843611F0893639F5F80153
:103A700027FF07C060817181828193810C5F1F4F96
:103A800008C060817181072E000C880B990B0E5FB6
:103A90001F4F2F76722E97FF09C0909580957095D5
:103AA00061957F4F8F4F9F4F2068722E2AE030E044
:103AB000A4010E94CA1FA82EA81844C0853729F463
:103AC0002F7EB22E2AE030E025C0F22FF97FBF2EE4
:103AD0008F36C1F018F4883579F0B4C0803719F00A
:103AE000883721F0AFC02F2F2061B22EB4FE0DC059
:103AF0008B2D8460B82E09C024FF0AC09F2F9660CA
:103B0000B92E06C028E030E005C020E130E002C058
:103B100020E132E0F801B7FE07C060817181828147
:103B200093810C5F1F4F06C06081718180E090E03F
:103B30000E5F1F4FA4010E94CA1FA82EA818FB2DBC
:103B4000FF777F2E76FE0BC0372D3E7FA51450F4F5
:103B500074FE0AC072FC08C0372D3E7E05C0BA2C28
:103B6000372D03C0BA2C01C0B52C34FF0DC0FE01A7
:103B7000EA0DF11D8081803311F4397E09C032FFD6
:103B800006C0B394B39404C0832F867809F0B3942D
:103B900033FD13C030FF06C05A2CB31418F4530C75
:103BA0005B18B32CB31468F4B70180E290E03C8753
:103BB0000E94921FB3943C85F5CFB31410F43B18C8
:103BC00001C0312C34FF12C0B70180E390E03C8784
:103BD0000E94921F3C8532FF17C031FD03C088E769
:103BE00090E002C088E590E0B7010CC0832F867892
:103BF00059F031FF02C08BE201C080E237FD8DE257
:103C0000B70190E00E94921FA51438F4B70180E339
:103C100090E00E94921F5A94F7CFAA94F401EA0D03
:103C2000F11D8081B70190E00E94921FA110F5CF95
:103C3000332009F451CEB70180E290E00E94921F38
:103C40003A94F6CFF7018681978102C08FEF9FEFFC
:103C50002C96E2E10C94BC210F931F93CF93DF933A
:103C6000869F8001879F100D969F100D1124C8011B
:103C70000E94481EEC01009729F0A80160E070E066
:103C80000E94801FCE01DF91CF911F910F91089567
:103C9000CF93DF938230910510F482E090E0E091C1
:103CA0004C06F0914D0620E030E0C0E0D0E03097C7
:103CB00011F14081518148175907C0F04817590741
:103CC00061F482819381209719F09B838A832BC0B2
:103CD00090934D0680934C0626C02115310519F0AE
:103CE0004217530718F49A01BE01DF01EF01028069
:103CF000F381E02DDCCF2115310509F1281B390BAB
:103D00002430310590F412968D919C911397611592
:103D1000710521F0FB019383828304C090934D06CB
:103D200080934C06FD01329644C0FD01E20FF31F63
:103D300081939193225031092D933C933AC0209165
:103D40004A0630914B06232B41F420910D0130910E
:103D50000E0130934B0620934A0620910B013091BF
:103D60000C012115310541F42DB73EB740910F01EB
:103D700050911001241B350BE0914A06F0914B063F
:103D8000E217F307A0F42E1B3F0B2817390778F032
:103D9000AC014E5F5F4F2417350748F04E0F5F1F91
:103DA00050934B0640934A068193919302C0E0E002
:103DB000F0E0CF01DF91CF9108950F931F93CF9340
:103DC000DF93009709F48CC0FC01329713821282B2
:103DD00000914C0610914D060115110581F42081CA
:103DE0003181820F931F20914A0630914B0628178C
:103DF000390779F5F0934B06E0934A0671C0D80174
:103E000040E050E0AE17BF0750F412962D913C9160
:103E10001397AD012115310509F1D901F3CF9D01AA
:103E2000DA013383228360817181860F971F8217A5
:103E3000930769F4EC0128813981260F371F2E5F23
:103E40003F4F318320838A819B8193838283452BDB
:103E500029F4F0934D06E0934C0642C01396FC9370
:103E6000EE931297ED01499159919E01240F351F50
:103E7000E217F30771F480819181840F951F0296F8
:103E800011969C938E938281938113969C938E932B
:103E90001297E0E0F0E0D80112968D919C91139773
:103EA000009719F0F8018C01F6CF8D919C91980143
:103EB0002E5F3F4F820F931F20914A0630914B0691
:103EC0002817390769F4309729F410924D0610929B
:103ED0004C0602C01382128210934B0600934A06CE
:103EE000DF91CF911F910F910895FC0105906150D2
:103EF00070400110D8F7809590958E0F9F1F089500
:103F0000DC0101C06D9341505040E0F70895FC0181
:103F10006150704001900110D8F7809590958E0FF8
:103F20009F1F08950F931F93CF93DF93FB0123816E
:103F300021FD03C08FEF9FEF28C022FF16C04681EE
:103F40005781248135814217530744F4A081B18100
:103F50009D012F5F3F4F318320838C9326813781D2
:103F60002F5F3F4F3783268310C0EB01092F182F97
:103F70000084F185E02D0995892BE1F68E819F81E2
:103F800001969F838E83812F902FDF91CF911F9178
:103F90000F910895FA01AA27283051F1203181F1BB
:103FA000E8946F936E7F6E5F7F4F8F4F9F4FAF4F41
:103FB000B1E03ED0B4E03CD0670F781F891F9A1F54
:103FC000A11D680F791F8A1F911DA11D6A0F711D08
:103FD000811D911DA11D20D009F468943F912AE014
:103FE000269F11243019305D3193DEF6CF010895FC
:103FF000462F4770405D4193B3E00FD0C9F7F6CF2D
:10400000462F4F70405D4A3318F0495D31FD4052F4
:10401000419302D0A9F7EACFB4E0A695979587958A
:1040200077956795BA95C9F7009761057105089569
:104030009B01AC010A2E0694579547953795279515
:10404000BA95C9F7620F731F841F951FA01D0895AD
:104050000E946A2008F481E00895E89409C097FB63
:104060003EF490958095709561957F4F8F4F9F4F4F
:104070009923A9F0F92F96E9BB279395F695879593
:1040800077956795B795F111F8CFFAF4BB0F11F456
:1040900060FF1BC06F5F7F4F8F4F9F4F16C08823FD
:1040A00011F096E911C0772321F09EE8872F762F33
:1040B00005C0662371F096E8862F70E060E02AF074
:1040C0009A95660F771F881FDAF7880F9695879560
:1040D00097F90895990F0008550FAA0BE0E8FEEF35
:1040E00016161706E807F907C0F012161306E407BC
:1040F000F50798F0621B730B840B950B39F40A26B5
:1041000061F0232B242B252B21F408950A2609F492
:10411000A140A6958FEF811D811D08950E94A120C9
:104120000C9412210E94042138F00E940B2120F0EF
:10413000952311F00C94FB200C94012111240C9474
:1041400046210E94232170F3959FC1F3950F50E003
:10415000551F629FF001729FBB27F00DB11D639F39
:10416000AA27F00DB11DAA1F649F6627B00DA11DDF
:10417000661F829F2227B00DA11D621F739FB00D85
:10418000A11D621F839FA00D611D221F749F3327F5
:10419000A00D611D231F849F600D211D822F762F8E
:1041A0006A2F11249F5750409AF0F1F088234AF06B
:1041B000EE0FFF1FBB1F661F771F881F91505040D7
:1041C000A9F79E3F510580F00C94FB200C944621EA
:1041D0005F3FE4F3983ED4F3869577956795B7955E
:1041E000F795E7959F5FC1F7FE2B880F911D969578
:1041F000879597F9089597F99F6780E870E060E0E8
:1042000008959FEF80EC089500240A94161617066F
:1042100018060906089500240A94121613061406B7
:1042200005060895092E0394000C11F4882352F01A
:10423000BB0F40F4BF2B11F460FF04C06F5F7F4FD2
:104240008F4F9F4F089557FD9058440F551F59F0B9
:104250005F3F71F04795880F97FB991F61F09F3F73
:1042600079F087950895121613061406551FF2CF9C
:104270004695F1DF08C0161617061806991FF1CFEC
:1042800086957105610508940895E894BB27662713
:104290007727CB0197F90895A1E21A2EAA1BBB1B21
:1042A000FD010DC0AA1FBB1FEE1FFF1FA217B30702
:1042B000E407F50720F0A21BB30BE40BF50B661F18
:1042C000771F881F991F1A9469F7609570958095DC
:1042D00090959B01AC01BD01CF010895052E97FB80
:1042E0001EF400940E94852157FD07D00E944C21A6
:1042F00007FC03D04EF40C948521509540953095E1
:1043000021953F4F4F4F5F4F089590958095709541
:1043100061957F4F8F4F9F4F08950E94D721A59F92
:10432000900DB49F900DA49F800D911D11240895B0
:10433000B7FF0C948D210E948D21821B930B089551
:104340002F923F924F925F926F927F928F929F92A5
:10435000AF92BF92CF92DF92EF92FF920F931F9393
:10436000CF93DF93CDB7DEB7CA1BDB0B0FB6F89444
:10437000DEBF0FBECDBF09942A88398848885F8484
:104380006E847D848C849B84AA84B984C884DF80F5
:10439000EE80FD800C811B81AA81B981CE0FD11DD9
:1043A0000FB6F894DEBF0FBECDBFED010895A29FFA
:1043B000B001B39FC001A39F700D811D1124911DF9
:1043C000B29F700D811D1124911D0895F894FFCFA7
:1043D000230223020200FF0100000000004E0680BD
:1043E0000096049604960496041F061F06960496EB
:1043F0000415001500960400000000C1043002D12D
:1044000004C70400000000D804320200000000B01D
:1044100001AB09790157016B01F701564D44505624
:104420005F317C315F564D4450560D0A0053657420
:10443000757020726F626F740A00496E6974207320
:10444000706565642073656E736F72206F6E20698E
:104450006E74657275707420300A005365747570DF
:10446000206E65636B0A0053657475702062757AFF
:104470007A65720A005365747570206579652066E7
:10448000726F6E740A005365747570207768656585
:104490006C730A00536574757020726164696F20D3
:1044A0006F75747075740A00536574757020677247
:1044B00065656E206C696768740A00536574757071
:1044C00020726564206C696768740A0053657475AE
:1044D0007020636F6D706C6574650A00564D4450B2
:1044E000455F31007C005F564D4450450D0A005633
:1044F0004D4450435F005F564D4450430D0A0074D5
:10450000657374206E65636B200A00746573742094
:104510006D6F746F72206677640A0074657374201F
:104520006D6F746F72206261636B776172640A00F1
:1045300074657374206D6F746F722072696768742C
:104540000A0074657374206D6F746F72206C6566F9
:10455000740A00746573742062757A7A65720A0051
:1045600053746F700A00416E676C65206E756D2024
:104570002564202825642064656729206469737494
:10458000616E6365202564636D0A00417070656E1D
:104590006473202564636D20746F2077696E646F87
:1045A00077206E756D20256420285B253364202CD0
:1045B000202533645D29206465672C20746F746145
:1045C0006C202564636D0A00426573742077696E00
:1045D000646F772025642062657374206F7665723E
:1045E000616C6C2064697374616E6365202564631B
:1045F0006D0A00416E676C65202533642064656731
:10460000202D2044697374616E6365202535642014
:10461000636D202D2057696E646F77205B253364AE
:10462000202C202533645D2025386420636D0A002A
:10463000626573742077696E646F772025642062E9
:104640006573742064697374616E636520256463A7
:104650006D200A005475726E202564206465670A17
:10466000004D6F766520466F72776172640A004470
:10467000697374616E6365203D202564636D2C2031
:1046800074696D65203D2025756D73200A004661B3
:10469000696C65642073656E64696E672073657408
:1046A0007570206D6573736167652E200050726FA1
:1046B000626C656D206E6F74206D6F76696E670A2F
:1046C00000546573740041766F69640057616974C2
:1046D000004368616E67696E67206D6F6465206670
:1046E000726F6D20257320746F2025730A00576147
:1046F0006974696E67202D20616E676C6520776133
:104700006E746564203D2025642C2063757272658B
:104710006E7420616E676C65203D2025642C2063DB
:104720006F756E746572203D2025640A0043616ECA
:10473000277420747275726E202D20616E676C650F
:104740002077616E746564203D2025642C2063759C
:104750007272656E7420616E676C65203D20256401
:104760002C20636F756E746572203D2025642C20AB
:104770006C61737420636865636B203D20256C75E4
:104780002C206E657720636865636B203D20256C67
:1047900075200A0041667465722073746F70202D55
:1047A00020616E676C652077616E746564203D20C2
:1047B00025642C2063757272656E7420616E676C5F
:1047C00065203D2025642C20636F756E7465722012
:0647D0003D2025640A00F3
:00000001FF
