:100000000C9450010C9478010C9478010C947801B4
:100010000C9478010C9478010C9478010C94980954
:100020000C9478010C9478010C9478010C9477046A
:100030000C9478010C9478010C9478010C9478015C
:100040000C9483030C9478010C9488020C94620243
:100050000C9478010C9478010C9478010C9478013C
:100060000C9478010C94780150415F4D4158005038
:10007000415F484947480050415F4C4F570050414D
:100080005F4D494E0031362062697473003820623A
:100090006974730044697361626C6564006E5246F2
:1000A00032344C30312B006E524632344C303100F9
:1000B0003235304B42505300324D42505300314D97
:1000C0004250530000000008000201000003040732
:1000D000000000000000000053544154555309092A
:1000E000203D203078253032782052585F44523DF0
:1000F00025782054585F44533D2578204D41585F62
:1001000052543D25782052585F505F4E4F3D257820
:100110002054585F46554C4C3D25780D0A005041FF
:1001200020506F77657209203D2025530D0A007E0F
:100130000077006F006800435243204C656E67747F
:100140006809203D2025530D0A0094008D0085008C
:100150004D6F64656C0909203D2025530D0A00A7E9
:10016000009D0044617461205261746509203D2046
:1001700025530D0A00BE00B800B00044594E50444B
:100180002F4645415455524500434F4E4649470975
:100190000052465F53455455500052465F4348094C
:1001A00000454E5F52584144445200454E5F414124
:1001B000090052585F50575F50302D360054585F39
:1001C00041444452090052585F414444525F503206
:1001D0002D350052585F414444525F50302D31005C
:1001E0000001020304054661696C65642073656E55
:1001F00064696E67207365747570206D65737361D3
:10020000676520004661696C65642073656E64698A
:100210006E672064697374616E6365004E6F77204A
:1002200073656E64696E672064697374616E63657B
:100230002E000D0A0025303278002030780025533A
:1002400009203D000D0A0020307825303278002545
:100250005309203D0000000000240027002A000070
:1002600000000023002600290000000000250028CF
:10027000002B000404040404040404020202020229
:10028000020303030303030102040810204080015A
:100290000204081020010204081020023D113C1144
:1002A00011241FBECFEFD8E0DEBFCDBF12E0A0E02B
:1002B000B1E0E4E9FFE202C005900D92A030B10781
:1002C000D9F723E0A0E0B2E001C01D92A033B2074D
:1002D000E1F711E0CFE4D1E004C02197FE010E94D4
:1002E000C312CE34D107C9F70E94810C0C94BD17FC
:1002F0000C940000FC01918D828D981761F0828D25
:10030000DF01A80FB11D5D968C91928D9F5F9F7349
:10031000928F90E008958FEF9FEF0895FC01918DEB
:10032000828D981731F0828DE80FF11D858D90E058
:1003300008958FEF9FEF0895FC01918D228D892FF5
:1003400090E0805C9F4F821B91098F7399270895DD
:100350008CE092E00E949C0121E0892B09F420E0CE
:10036000822F0895FC01848DDF01A80FB11DA35ACF
:10037000BF4F2C91848D90E001968F739927848FC5
:10038000A689B7892C93A089B1898C9180648C93BC
:10039000938D848D981306C00288F389E02D8081A7
:1003A0008F7D80830895EF92FF920F931F93CF93D9
:1003B000DF93EC0181E0888F9B8D8C8D981305C0B5
:1003C000E889F989808185FD24C0F62E0B8D10E027
:1003D0000F5F1F4F0F731127E02E8C8DE8120CC09A
:1003E0000FB607FCFACFE889F989808185FFF5CF40
:1003F000CE010E94B201F1CF8B8DFE01E80FF11DFD
:10040000E35AFF4FF0820B8FEA89FB89808180627B
:1004100007C0EE89FF896083E889F989808180645B
:10042000808381E090E0DF91CF911F910F91FF9049
:10043000EF900895CF93DF93EC01888D8823C9F066
:10044000EA89FB89808185FD05C0A889B9898C91DD
:1004500086FD0FC00FB607FCF5CF808185FFF2CF78
:10046000A889B9898C9185FFEDCFCE010E94B20198
:10047000E7CFDF91CF91089580E090E0892B29F0BC
:100480000E94A80181110C94000008952FB7F894E0
:100490006091020270910302809104029091050222
:1004A0002FBF0895CF93C82F682F8CE092E00E9451
:1004B000D3018C2FCC0F990BCF9108950C94D815A4
:1004C0000C94D8151F920F920FB60F9211242F93F0
:1004D0003F934F935F936F937F938F939F93AF93CC
:1004E000BF93EF93FF938CE092E00E94B201FF91E3
:1004F000EF91BF91AF919F918F917F916F915F919C
:100500004F913F912F910F900FBE0F901F90189514
:100510001F920F920FB60F9211242F938F939F93D8
:10052000EF93FF93E0911C02F0911D028081E09116
:100530002202F091230282FD12C090818091250257
:100540008F5F8F7320912602821751F0E091250270
:10055000F0E0E45FFD4F958F8093250201C080811C
:10056000FF91EF919F918F912F910F900FBE0F9060
:100570001F90189590E0FC01EC53FF4F3491FC0163
:10058000E957FD4F2491FC01ED58FD4FE491EE2316
:1005900009F43BC0332339F1333091F038F4313072
:1005A000A9F0323001F584B58F7D12C0373091F05B
:1005B0003830A1F03430B9F4809180008F7D03C0D1
:1005C000809180008F77809380000DC084B58F77F5
:1005D00084BD09C08091B0008F7703C08091B000C6
:1005E0008F7D8093B000F0E0EE0FFF1FE759FD4FC5
:1005F000A591B4918FB7F894EC91611103C0209547
:100600002E2301C02E2B2C938FBF0895FC0115863D
:10061000148660E082810C94BA0261E0FC01828160
:100620000C94BA0221E030E0FC01358724870C9459
:100630000D038230910538F0880F991F880F991F9C
:1006400005970197F1F708953FB7F8948091060256
:1006500090910702A0910802B091090226B5A89BCB
:1006600005C02F3F19F00196A11DB11D3FBFBA2F44
:10067000A92F982F8827820F911DA11DB11DBC01A4
:10068000CD0142E0660F771F881F991F4A95D1F769
:1006900008958F929F92AF92BF92CF92DF92EF9286
:1006A000FF926B017C010E9424034B015C01C11489
:1006B000D104E104F104F1F00E942403DC01CB0138
:1006C00088199909AA09BB09883E9340A105B1057B
:1006D00070F321E0C21AD108E108F10888EE880E13
:1006E00083E0981EA11CB11CC114D104E104F104E3
:1006F00019F7DDCFFF90EF90DF90CF90BF90AF90D4
:100700009F908F9008951F920F920FB60F92112411
:100710002F933F938F939F93AF93BF938091020248
:1007200090910302A0910402B09105023091010260
:1007300023E0230F2D3720F40196A11DB11D05C024
:1007400026E8230F0296A11DB11D2093010280937C
:10075000020290930302A0930402B09305028091D9
:10076000060290910702A0910802B0910902019639
:10077000A11DB11D8093060290930702A093080269
:10078000B0930902BF91AF919F918F913F912F91AB
:100790000F900FBE0F901F9018950F931F93CF933C
:1007A000DF93EC018B0160E088810E94BA0260E077
:1007B0008A810E94BA0260E08C810E94BA0260E0E5
:1007C0008E810E94BA02B801110F880B990BDF913C
:1007D000CF911F910F910C9449038EBD00000DB471
:1007E00007FEFDCF8EB50895CF92DF92EF92FF9274
:1007F000CF93DF93EC01603282E078070CF03DC0CC
:1008000077FD06C0653B71052CF064EB70E002C01B
:1008100060E070E0898128E830E06901C81AD108F9
:1008200087FDD394CC0CDD1CCC0CDD1C0D2C000CF6
:10083000EE08FF088A8128E532E0281B310987FD90
:100840003395220F331F220F331FC901330FAA0B19
:10085000BB0B9C01AD012C193D094E095F09DB0161
:100860000E944D1724EB30E040E050E00E94231737
:10087000C20ED31EE41EF51EB60188818C3080F5B1
:10088000998148E850E0491B510997FD5395440F61
:10089000551F440F551F6417750784F09A8128E58A
:1008A00032E0291B310997FD3395220F331F220FA8
:1008B000331FAB01261737070CF4A9014250510929
:1008C000440F551F2FB7F89490E0FC01EE0FFF1F67
:1008D0008E0F9F1FFC01E755FD4F528341832FBFB1
:1008E000DF91CF91FF90EF90DF90CF9008951F920E
:1008F0000F920FB60F9211242F933F934F935F9354
:100900006F937F938F939F93AF93BF93EF93FF93D7
:100910008091000287FF05C010928500109284002C
:100920001BC020910002022E000C330B8091CD02DF
:1009300090E02817390784F480910002082E000CFB
:10094000990BFC01EE0FFF1F8E0F9F1FFC01E75557
:10095000FD4F808186FD15C0809100028F5F8093DE
:10096000000220910002022E000C330B8091CD0278
:1009700090E028173907C4F4809100028C3064F1AC
:1009800013C080910002082E000C990BFC01EE0FA1
:10099000FF1F8E0F9F1FFC01E755FD4F808160E018
:1009A0008F730E94BA02D8CF809184009091850005
:1009B000049680349C4918F480E49CE905C0809139
:1009C000840090918500049690938900809388001C
:1009D0008FEF809300023BC020918400309185000E
:1009E00080910002082E000C990BFC01EE0FFF1FF6
:1009F0008E0F9F1FFC01E755FD4F81819281820F71
:100A0000931F909389008093880080910002082EA4
:100A1000000C990BFC01EE0FFF1F8E0F9F1FFC01B6
:100A2000E755FD4F808186FF12C080910002082E9D
:100A3000000C990BFC01EE0FFF1F8E0F9F1FFC0196
:100A4000E755FD4F808161E08F730E94BA02FF91EC
:100A5000EF91BF91AF919F918F917F916F915F9136
:100A60004F913F912F910F900FBE0F901F901895AF
:100A70000895089590E0FC01E957FD4F2491FC0191
:100A8000ED58FD4F8491882399F090E0880F991FCD
:100A9000FC01EB5AFD4FA591B491FC01E759FD4FC4
:100AA000859194918FB7F894EC91E22BEC938FBFE2
:100AB0000895009769F0FC0101900020E9F7319753
:100AC000AF01481B590BBC018CE092E00C940F085D
:100AD00080E090E0089564EF71E086EF92E00C947E
:100AE000CD030F931F93CF93DF938C010E946B056F
:100AF000C6EFD2E061E088810E94BA0260E08A819C
:100B00000E94BA0260E08C810E94BA0261E08E818C
:100B10000E94BA02B801110F880B990B0E94490379
:100B2000DF91CF911F910F910C946B050F931F9341
:100B3000CF93DF938C010E946B05C6EFD2E060E09B
:100B400088810E94BA0261E08A810E94BA0261E053
:100B50008C810E94BA0260E08E810E94BA02B801C4
:100B6000110F880B990B0E944903DF91CF911F91C0
:100B70000F910C946B050F931F93CF93DF938C0110
:100B80000E946B05C6EFD2E060E088810E94BA0245
:100B900061E08A810E94BA0260E08C810E94BA0200
:100BA00061E08E810E94BA02B801110F880B990B87
:100BB0000E944903DF91CF911F910F910C946B0517
:100BC000CF93DF930E946B05C6EFD2E061E088818E
:100BD0000E94BA0260E08A810E94BA0261E08C81C0
:100BE0000E94BA0260E08E81DF91CF910C94BA022C
:100BF000EF92FF920F931F93CF93DF93EC018091BD
:100C00001003882331F084EB90E09C012C1B3D0BFA
:100C1000E90100910E0310910F030C171D0724F03A
:100C2000EE24EA94FE2C1AC0EE24E394F12C16C0B4
:100C30000C171D07D4F0B80180910A0390910B03A3
:100C40000E94F40360910C0370910D03072E000CB9
:100C5000880B990B0E9449030E0D1F1D3FEFE316F1
:100C6000F30631F3C017D10734F7D0930F03C093C5
:100C70000E03DF91CF911F910F91FF90EF90089598
:100C80000F931F93CF93DF938C01C0E0D0E0F80166
:100C9000EC0FFD1F6491662371F0E0910C02F0915E
:100CA0000D020190F081E02D8CE092E00995892BF6
:100CB00011F02196ECCF42E050E06DEF71E08CE056
:100CC00092E00E940F088C0F9D1FDF91CF911F9122
:100CD0000F910895CF93DF939CB59F7D9CBD9CB5EC
:100CE000937F9CBD9CB59C7F9CBD9DB591609DBD37
:100CF000C0EED2E0682F89810E94BA028A899B895E
:100D0000DF91CF910C94190381E00C946A0680E086
:100D10000C946A06CF93DF931F92CDB7DEB7898319
:100D20000E94870689810E94ED0389830E948406C0
:100D300089810F90DF91CF9108951F93CF93DF9317
:100D400000D0CDB7DEB76A8389830E948706898188
:100D50008F7180620E94ED03182F6A81862F0E9496
:100D6000ED030E948406812F0F900F90DF91CF91A9
:100D70001F910895682F8091E0029091E1028913FC
:100D80000C94BA020895DF92EF92FF920F931F9393
:100D9000CF93DF931F92CDB7DEB7F82E2091E502F7
:100DA000D22E273010F086E0D82E8091E6028111F5
:100DB00003C0E22EED1801C0E12C99830E94870642
:100DC00080EA0E94ED030F2D9981192FDA94FFEF2D
:100DD000DF1631F0F80181918F010E94ED03F6CF0B
:100DE000EE2029F080E00E94ED03EA94F9CF0E9402
:100DF000840681E00E94BA068FEF0E948A06807303
:100E0000D9F380E00E94BA0660E787E00E949D0661
:100E100084FF05C081EE0E948A0680E001C081E067
:100E20000F90DF91CF911F910F91FF90EF90DF9086
:100E30000895CF93DF931F92CDB7DEB789830E94C9
:100E4000870689818F710E94ED038FEF0E94ED0369
:100E500089830E94840689810F90DF91CF91089544
:100E6000EF92FF920F931F93CF93DF931F92CDB713
:100E7000DEB7E42E9F938F938FE492E09F938F933E
:100E800069830E942F136981E60E0F900F900F90D7
:100E90000F9007E412E06E1591F0FF24F394F60E24
:100EA000862F0E9419071F928F931F930F930E9402
:100EB0002F130F900F900F900F906F2DECCF84E4B5
:100EC00092E09F938F930E942F130F900F900F909B
:100ED000DF91CF911F910F91FF90EF9008952F9286
:100EE0003F924F925F926F927F928F929F92AF92BA
:100EF000BF92CF92DF92EF92FF920F931F93CF9307
:100F0000DF931F92CDB7DEB7562E342E6DB67EB668
:100F10009F938F938EE392E09F938F930E942F1362
:100F2000350C0F900F900F900F908AE3C82E82E03F
:100F3000D82E95E3A92E92E0B92E531409F44EC091
:100F40008DB69EB69091EC02092F10E02DB73EB7FA
:100F5000201B310B0FB6F8943EBF0FBE2DBFEDB76F
:100F6000FEB731967F0122242394250C99830E9499
:100F70008706852D8F710E94ED03270199819E0DB3
:100F8000941549F08FEF99830E94ED03F20181934C
:100F90002F019981F5CF0E948406DF92CF920E94A3
:100FA0002F130E0D1F1D0F900F90015011090E15DC
:100FB0001F0568F0F80180811F928F93BF92AF9256
:100FC0000E942F130F900F900F900F90EECF0FB63F
:100FD000F8949EBE0FBE8DBE522CAFCF82E392E03E
:100FE0009F938F930E942F130F900F900FB6F8943A
:100FF0007EBE0FBE6DBE0F90DF91CF911F910F91FE
:10100000FF90EF90DF90CF90BF90AF909F908F9028
:101010007F906F905F904F903F902F900895CF9268
:10102000DF92EF92FF920F931F93CF93DF936C01A8
:101030007A018B01C0E0D0E0CE15DF0589F0D80140
:101040006D918D01D601ED91FC910190F081E02D23
:10105000C6010995892B11F47E0102C02196ECCFBF
:10106000C701DF91CF911F910F91FF90EF90DF901B
:10107000CF9008950E94C9122F923F924F925F9293
:101080006F927F928F929F92AF92BF92CF92DF9298
:10109000EF92FF920F931F93CF93DF93CDB7DEB7FD
:1010A0002A970FB6F894DEBF0FBECDBF00910403A0
:1010B000109105031A82198265E0662E712C7BE07F
:1010C000272E312CE8EE8E2EE3E09E2EA12CB12CA3
:1010D0000E9424036B017C01D8011696ED91FC91CE
:1010E000179790818C91892B80831296ED91FC91BA
:1010F000139790818C91809589238083C1010197FA
:10110000F1F71296ED91FC91139790818C91892BB8
:10111000808383E290E00197F1F71296ED91FC91C4
:10112000139790818C918095892380831696ED91F9
:10113000FC91179790818C918095892380831496D8
:10114000ED91FC911597908111968C91892309F06E
:1011500095C00E942403F8012085318540E050E0CD
:101160002855394E4F4F5F4FDC01CB01820F931F43
:10117000A41FB51F82879387A487B587D8011496CB
:10118000ED91FC911597908111968C91892379F4BA
:101190000E942403D8011A962D913D914D915C91A6
:1011A0001D97261737074807590740F767C00E9461
:1011B0002403F80120853185DC01CB01820F931FC8
:1011C000A11DB11D82879387A487B587D801149686
:1011D000ED91FC911597908111968C91892379F06E
:1011E0000E942403D8011A962D913D914D915C9156
:1011F0001D97261737074807590740F73FC00E9439
:101200002403F80120853185A90145505109228523
:101210003385DA01A21BB30B6A0F7B1F61157105C1
:1012200069F1711002C040E01FC0472D842F90E08B
:10123000FC013197EE0FFF1F21E030E02C0F3D1F26
:10124000E20FF31F208131812617370768F4880FDA
:10125000991FE1E0F0E0EC0FFD1FE80FF91F31836B
:101260002083415019F7DFCFFE013196E40FF11DC5
:10127000E40FF11D71836083739401C06A94761446
:1012800038F50E942403DC01CB018C199D09AE09BD
:10129000BF0988349147A105B10508F019CF0E9414
:1012A000240348E4C40E41E7D41EE11CF11CA7014D
:1012B0009601261B370B480B590BCA01B901A50132
:1012C00094010E948C17CA01B9010E94490300CF02
:1012D000862D8E7FFE01E80FF11D818192810FB670
:1012E000F894DEBF0FBECDBF69E370E00E94AF127D
:1012F000CB01009721F480910203909103032A9679
:101300000FB6F894DEBF0FBECDBFDF91CF911F9116
:101310000F91FF90EF90DF90CF90BF90AF909F9094
:101320008F907F906F905F904F903F902F90089597
:101330001F920F920FB60F9211242F933F934F934A
:101340005F936F937F938F939F93AF93BF93EF932D
:10135000FF938091220390912303A0912403B091E5
:101360002503892B8A2B8B2B59F180912103E09146
:101370001F03F091200390818927808380912203AD
:1013800090912303A0912403B09125031816190608
:101390001A061B060CF03DC0809122039091230396
:1013A000A0912403B09125030197A109B10980936D
:1013B000220390932303A0932403B093250329C011
:1013C00080910001EBE9F2E0E4919FEF909300013E
:1013D000E130B9F098F0E230C9F4909170009D7F4F
:1013E0009093700091E09093B0009091B100987F3D
:1013F00094609093B1001092B30008C010926E00F8
:1014000005C090916F009D7F90936F0060E00E94F7
:10141000BA02FF91EF91BF91AF919F918F917F9110
:101420006F915F914F913F912F910F900FBE0F9051
:101430001F9018953F924F925F926F927F928F927A
:101440009F92AF92BF92CF92DF92EF92FF920F9353
:101450001F93CF93DF9300D000D0CDB7DEB790912C
:101460000001981721F09F3F09F035C204C0EBE955
:10147000F2E0349081C080930001EBE9F2E0E49166
:10148000EF3F09F428C2E13031F1E23009F44BC0FA
:10149000E11171C014BC15BC94B5926094BD95B5B2
:1014A000916095BDA82FB0E0FD01ED58FD4FE4918E
:1014B000F0E0EE0FFF1FE759FD4F059114911093D7
:1014C000160300931503FD01E957FD4FE491E093E6
:1014D0001403312C53C0109280001092810090911F
:1014E0008100986090938100909181009160909329
:1014F0008100A82FB0E0FD01ED58FD4FE491F0E030
:10150000EE0FFF1FE759FD4F059114911093130340
:1015100000931203FD01E957FD4FE491E09311039D
:10152000332433942BC01092B0001092B1009091EC
:10153000B00092609093B0009091B1009160909350
:10154000B100A82FB0E0FD01ED58FD4FE491F0E0AF
:10155000EE0FFF1FE759FD4F0591149110932003E3
:1015600000931F03FD01E957FD4FE491E093210330
:1015700002E0302E03C03E2E37FCADC129013A01F6
:101580008B010E943A054801A12CB12C832D8D7F3F
:1015900009F0BBC060E072E18AE790E0A501940128
:1015A0000E94231729833A834B835C8369017A0164
:1015B00021E0C21AD108E108F1088FEFC816D10462
:1015C000E104F10409F008F44CC060E472E48FE037
:1015D00090E0A50194010E94231769017A01E1E0DE
:1015E000CE1AD108E108F108F2E03F1220C02FEF37
:1015F000C216D104E104F10409F008F46AC160E9FB
:1016000070ED83E090E0A50194010E942317690129
:101610007A0181E0C81AD108E108F108EFEFCE168F
:10162000D104E104F10409F0D0F583E067C0FFEFD5
:10163000CF16D104E104F104B1F0A8F068E478EE2B
:1016400081E090E0A50194010E94231769017A01CD
:1016500081E0C81AD108E108F108332009F4DFC09D
:101660002FC181E001C082E03320A1F047C0898111
:101670009A81AB81BC812AE0B595A795979587950E
:101680002A95D1F76C017D0121E0C21AD108E10849
:10169000F10885E095B5987F892B85BD6FC068E41A
:1016A00078EE81E090E0A50194010E942317690182
:1016B0007A01F1E0CF1AD108E108F1082FEFC21644
:1016C000D104E104F10409F008F4A7C064E274EF66
:1016D00080E090E0A50194010E94231769017A013E
:1016E000E1E0CE1AD108E108F108FFEFCF16D104EE
:1016F000E104F10411F008F0B4C085E09091B1006C
:10170000987F892B8093B10039C060E072E18AE74D
:1017100090E0A50194010E94231769017A0181E0FC
:10172000C81AD108E108F108C114D104E1E0EE06BD
:10173000F10488F068E478EE81E090E0A50194017E
:101740000E94231769017A01F1E0CF1AD108E1085C
:10175000F10893E001C091E021E032120FC08091C6
:101760008100887F892B809381004114510461049A
:10177000710449F42FEF3FEFA9012DC0411451042A
:101780006104710471F0D801AA0FBB1FA30192017B
:101790000E94421728EE33E040E050E00E948C1790
:1017A00003C02FEF3FEFA90181E03816A1F0E2E07E
:1017B0003E1619F131108FC0C7BC20931B03309324
:1017C0001C0340931D0350931E0380916E008260A2
:1017D00080936E0080C0D0928900C09288002093D0
:1017E0001703309318034093190350931A03809101
:1017F0006F00826080936F006EC0C092B300209330
:1018000022033093230340932403509325038091B4
:1018100070008260809370005EC084E06FCFFFEF45
:10182000CF16D104E104F104D1F0C8F062E17AE707
:1018300080E090E0A50194010E94231769017A01DC
:1018400081E0C81AD108E108F108EFEFCE16D10403
:10185000E104F10411F008F00ACF84E01BCF83E02B
:1018600019CF62E17AE780E090E0A50194010E943F
:10187000231769017A0181E0C81AD108E108F1084B
:10188000EFEFCE16D104E104F104C1F0B8F0898184
:101890009A81AB81BC814AE0B595A79597958795CC
:1018A0004A95D1F76C017D0121E0C21AD108E10807
:1018B000F108332009F4EDCE87E020CF86E0D4CEC6
:1018C000FFEFCF16D104E104F10409F050F684E0F3
:1018D000CBCE82E013CF0F900F900F900F90DF913F
:1018E000CF911F910F91FF90EF90DF90CF90BF901D
:1018F000AF909F908F907F906F905F904F903F90B0
:101900000895CF93DF93CDB7DEB7A4970FB6F894C1
:10191000DEBF0FBECDBF789484B5826084BD84B530
:10192000816084BD85B5826085BD85B5816085BDDA
:1019300080916E00816080936E0010928100809192
:10194000810082608093810080918100816080931A
:101950008100809180008160809380008091B1003F
:1019600084608093B1008091B00081608093B0006A
:1019700080917A00846080937A0080917A008260FE
:1019800080937A0080917A00816080937A008091C0
:101990007A00806880937A001092C10060E070E065
:1019A00082E592E00E94E412E0911C02F0911D0297
:1019B00082E08083E0911802F09119021082E09198
:1019C0001A02F0911B0280E1808310922402E091C0
:1019D0002002F091210286E08083E0911E02F091C6
:1019E0001F02808180618083E0911E02F0911F02BE
:1019F000808188608083E0911E02F0911F028081C7
:101A000080688083E0911E02F0911F0280818F7DAB
:101A100080838DE591E00E9459058091E0029091CC
:101A2000E10289130E943A058091E1029091E0025F
:101A300098130E943A051FB7F89480910A02811109
:101A400024C0EDE7F2E08491E1E9F2E09491E82F1F
:101A5000F0E0EE0FFF1FEB5AFD4FA591B491EC9112
:101A6000E92321F461E08AE00E94BA028AE00E9440
:101A70003A058CB580618CBD8CB580648CBD8DE0E1
:101A80000E943A058BE00E943A0580910A028F5F1E
:101A900080930A021FBF80E00E94BA0681E00E9484
:101AA0006A0665E070E080E090E00E9449036CE027
:101AB00080E00E949D066FE584E00E949D0686E01E
:101AC0000E941907877D182F10628BE990E0A0E033
:101AD000B0E08093EE029093EF02A093F002B093F7
:101AE000F102612F86E00E949D0686E00E941907A0
:101AF000811709F4B3C386E00E94190786E00E94AB
:101B0000190745E550E060E070E04093EE02509325
:101B1000EF026093F0027093F102682F677D86E018
:101B20000E949D0686E00E9419070E94870680E5B4
:101B30000E94ED0383E70E94ED030E94840660E0AB
:101B40008DE10E949D0660E08CE10E949D0660E7A9
:101B500087E00E949D066CE485E00E949D0682EE6F
:101B60000E948A0681EE0E948A0680E00E94190780
:101B700081FD0BC0682F626080E00E949D0665E0D9
:101B800070E080E090E00E94490380E00E94190725
:101B9000682F6E7F80E00E949D0686E00E941907F4
:101BA000887F682F636086E00E949D066FE381E076
:101BB0000E949D0663E184E00E949D0681E78F8B71
:101BC0009DEC988F8BEA898F9A8F8B8F1C8E1D8E40
:101BD0001E8EB090EC020E9487068AE20E94ED03FE
:101BE0007E0127E1E20EF11C67018701AE2CBE0CDD
:101BF000BC1431F0D6018D916D010E94ED03F8CF38
:101C00000E948406D090EC020E94870680E30E9426
:101C1000ED03DA0CDE1431F0F70181917F010E94AF
:101C2000ED03F8CF0E9484066091E50281E10E94F5
:101C30009D068FEF0E948A06282F30E0982F917022
:101C40001F929F9335952795277033273F932F93A6
:101C500084FB992790F91F929F9385FB992790F910
:101C60001F929F9386FB992790F91F929F931F9233
:101C70008F9388ED90E09F938F930E942F1342E003
:101C80006AE083ED91E00E946F0744E06CE086EC2F
:101C900091E00E94300741E060E18DEB91E00E940D
:101CA0006F0746E061E182EB91E00E94300741E07E
:101CB00061E08BEA91E00E94300741E062E081EA56
:101CC00091E00E94300741E065E08AE991E00E94DE
:101CD000300741E066E081E991E00E94300741E091
:101CE00060E089E891E00E94300742E06CE18BE718
:101CF00091E00E94300786E00E94190788720FB6B3
:101D0000F894DEBF0FBECDBF803241F021E090E0FD
:101D1000883009F020E0E22FF92F02C0E2E0F0E085
:101D2000EE0FFF1FEB58FE4F859194919F938F9379
:101D300083E691E09F938F930E942F13E091E4023A
:101D4000F0E0EE0FFF1FE15AFE4F859194919F93B3
:101D50008F9380E591E09F938F930E942F1380E0F3
:101D60000E941907F82E81E00E9419070FB6F89417
:101D7000DEBF0FBECDBFF3FC02C0882329F0F2FC0A
:101D800006C0E1E0F0E005C0E0E0F0E002C0E2E023
:101D9000F0E0EE0FFF1FE65BFE4F859194919F935D
:101DA0008F9387E391E09F938F930E942F1386E098
:101DB0000E9419078670E82FF0E0E15DFE4F8591E3
:101DC00094919F938F938EE191E09F938F930E94C4
:101DD0002F1380E00E94BA068091EE029091EF02EC
:101DE0000E9419038DE10E9419070FB6F894DEBF17
:101DF0000FBECDBF81FF09C08091EE029091EF022E
:101E00000E94190381EE0E948A0680E00E94190751
:101E1000682F6E7F80E00E949D0682E00E94190775
:101E2000E0EEF1E0E49161E070E001C0660FEA9558
:101E3000EAF7682B82E00E949D061CA21BA20E946A
:101E400046026F8F78A389A39AA3CE014F960E9472
:101E5000C306811104C086EE91E00E944006D09036
:101E60000803E0900A03F0900B03D7018C918C30AB
:101E700008F055C08D2D0E943A05F7018081E82FAA
:101E8000F0E09F01220F331FE20FF31FE755FD4FD4
:101E90009D2D9F732081207CD22ED92AD082D701FC
:101EA00011961C92119712961C926CE00E94A3123C
:101EB000BCE08B9FB001112440E050E09A01260F56
:101EC000371FF901EE0FFF1F2E0F3F1FF901E755D6
:101ED000FD4F908196FD16C04F5F5F4F4C3051050E
:101EE00069F781110FC01092800082E08093810019
:101EF0001092850010928400B19A80916F008260E8
:101F000080936F00D701EC91F0E0CF01880F991F0B
:101F1000E80FF91FE755FD4F8081806480836AE5F3
:101F200070E080910A0390910B030E94F4038AE50C
:101F300090E090930F0380930E0382ED92E00E9455
:101F400012038EEC92E00E940D0389E691E00E945C
:101F5000590587E890E00E94F8058DE290E00E9424
:101F6000F8058AE590E00E94F80585E791E00E9477
:101F700059050E94E00568EE73E080E090E00E9461
:101F800049030E946B0585E891E00E94590588EE9F
:101F900093E00E94BB058AE991E00E94590588EE12
:101FA00093E00E9496058CEA91E00E94590588EE24
:101FB00093E00E9471058DEB91E00E94590586E146
:101FC000EBE0F1E0DE01119601900D928A95E1F7C8
:101FD000FE0131967F01D7016D917D917D0126E94A
:101FE00030E040E050E0809106030E941A0A67E961
:101FF00070E080E090E00E944903E016F10659F796
:1020000010920B0282ED92E00E9406038EEC92E0A9
:102010000E940D038AECC82E81E0D82E0091DE02CA
:102020001091DF0201301105B1F50E944602809047
:10203000D8029090D902A090DA02B090DB02AB01F6
:10204000BC01481959096A097B098091D60290910F
:10205000D702092E000CAA0BBB0B84179507A60705
:10206000B707C8F48091DC029091DD02892B09F05A
:10207000F9C082ED92E00E940D031093DD020093FF
:10208000DC020E9446026093D8027093D9028093CA
:10209000DA029093DB020E943C088E3191050CF02D
:1020A000D4C09E838D830E94460269837A838B838A
:1020B0009C838CE192E00E9440068C818F938B81FF
:1020C0008F938A818F9389818F938E818F938D8156
:1020D0008F93DF92CF920E94CE12CE0101960E9482
:1020E000C3060FB6F894DEBF0FBECDBF811104C08A
:1020F00084E092E00E94400682ED92E00E94060396
:102100008EEC92E00E940D0389EE91E00E94590549
:102110000E946B0524E630E040E050E06FE971E09A
:10212000809106030E941A0A65E670E080E090E064
:102130000E94490360E570E080E090E00E9449035E
:1021400024E630E040E050E067E171E08091060372
:102150000E941A0A65E670E080E090E00E94490360
:1021600060E570E080E090E00E9449038AE590E03D
:102170000E94F8050E943C087C018DE290E00E94DC
:10218000F8050E943C088C0187E890E00E94F80561
:102190000E943C080817190719F40E151F0561F075
:1021A0008E159F051CF40E151F0534F08530910522
:1021B00084F40530110584F48AE590E00E94F80566
:1021C0008CE291E00E94BB0580E293E00E947105E1
:1021D00029C0081719079CF00E151F056CF08DE239
:1021E00090E00E94F8058CE291E00E94BB058CE231
:1021F00091E00E94710512C0801791079CF08E1526
:102200009F0584F087E890E00E94F8058CE291E059
:102210000E94BB058CE291E00E9496058AE590E061
:102220000E94F8050E943C084F977CF08FEE91E0E9
:102230000E9459050E94E00582ED92E00E9412037F
:1022400060E08091D0020E94BA0262E370E080E018
:1022500090E00E9449030E943C02E0CE81E080931E
:10226000E40249CC60E08091D4020E94BA0210924C
:10227000DD021092DC0205CF0895CF93DF93109218
:102280000F0210920E0288EE93E0A0E0B0E080937F
:10229000100290931102A0931202B093130285E2F0
:1022A00091E090930D0280930C0285EC90E0909366
:1022B00019028093180284EC90E090931B028093A3
:1022C0001A0280EC90E090931D0280931C0281EC36
:1022D00090E090931F0280931E0282EC90E0909316
:1022E00021028093200286EC90E090932302809359
:1022F00022021092250210922602109227021092BA
:10230000280286E090E0909309038093080385E01B
:1023100090E090930D0380930C0310920F031092A2
:102320000E0381E08093100383E090E00E94431548
:102330002091CD022C30A0F431E0320F3093CD0249
:10234000FC01208330E0F901EE0FFF1F2E0F3F1F2D
:10235000F901E755FD4F28EB3BE03283218303C0B1
:102360002FEFFC01208390930B0380930A038EE0F0
:1023700090E0909307038093060321E030E040E073
:1023800050E064E670E088E00E941A0A8CE291E076
:10239000909303038093020385E090E09093010300
:1023A0008093000384E090E09093FF028093FE020C
:1023B0008EE090E00E944315DC01EBE8F2E0E4914E
:1023C000EC93ECE8F2E0E4911196EC93119727E797
:1023D00032E0F9018491E82FF0E0EE0FFF1FE7599A
:1023E000FD4F8591949113969C938E931297E8E7F5
:1023F000F2E0E491F0E0EE0FFF1FE15AFD4F85910E
:10240000949115969C938E931497F9012491E22F41
:10241000F0E0EE0FFF1FEB5AFD4F85919491179658
:102420009C938E93169785E093E419969C938E93D4
:102430001897B0930503A093040380E190E0909374
:10244000F7028093F60281E190E09093F902809385
:10245000F80282E190E09093FB028093FA0283E11C
:1024600090E09093FD028093FC0280E10E943A0587
:102470008091F8020E943A058091FA020E943A0582
:102480008091FC020E943A0560E070E086EF92E0E5
:102490000E94CD0387E08093E00288E08093E10210
:1024A0001092E40280E28093E5021092E60285E059
:1024B0008093EC0285E090E0A0E0B0E08093F2022F
:1024C0009093F302A093F402B093F5021092E70206
:1024D000C1E4D1E0D093D302C093D20282E00E9443
:1024E0003A0582E090E09093D5028093D40285E390
:1024F00091E09093D3028093D20288EC90E0909385
:10250000D7028093D6021092DD021092DC02109264
:10251000D8021092D9021092DA021092DB021092C5
:10252000DF021092DE02D093CF02C093CE0283E08E
:102530000E943A0583E090E09093D1028093D0020C
:10254000DF91CF910895991B79E004C0991F9617E8
:1025500008F0961B881F7A95C9F780950895AA1BE5
:10256000BB1B51E107C0AA1FBB1FA617B70710F07E
:10257000A61BB70B881F991F5A95A9F780959095B0
:10258000BC01CD010895EE0FFF1F0590F491E02DE1
:10259000099481E090E0F8940C94BD17A0E0B0E0BD
:1025A000E4EDF2E10C946517AE014B5F5F4FFA0169
:1025B00061917191AF0180912803909129030E944C
:1025C0005513E2E00C9481170F931F93CF93DF9381
:1025D000009731F46115710519F480E090E03AC07C
:1025E0008B01EC016EE070E081E090E00E94271525
:1025F000FC01892B91F380E883830115110571F0AB
:102600001387028781E883838091260390912703B3
:10261000892B21F4F0932703E09326032097C9F038
:10262000D187C087838182608383809128039091C2
:102630002903892B71F4F0932903E09328038091F7
:102640002A0390912B03892B21F4F0932B03E09321
:102650002A03CF01DF91CF911F910F910895A0E040
:10266000B0E0E5E3F3E10C946317AE01495F5F4F1F
:10267000DA016D917D91AD0106E213E0F8018281EE
:102680009381DC0113962C911397286013962C9359
:102690000E945513D8011296ED91FC911397238156
:1026A000277F2383E4E00C947F17ACE0B0E0EBE5F8
:1026B000F3E10C9455177C016B018A01FC01178230
:1026C0001682838181FFBDC1CE0101964C01F701C5
:1026D0009381F60193FD859193FF81916F0188238A
:1026E00009F4ABC1853239F493FD859193FF819153
:1026F0006F01853229F4B70190E00E948D16E7CF73
:10270000512C312C20E02032A0F48B3269F030F4CF
:10271000803259F0833269F420612CC08D3239F057
:10272000803339F4216026C02260246023C02860F1
:1027300021C027FD27C030ED380F3A3078F426FF4E
:1027400006C0FAE05F9E300D1124532E13C08AE0BC
:10275000389E300D1124332E20620CC08E3221F4AD
:1027600026FD6BC1206406C08C3611F4206802C0BF
:10277000883641F4F60193FD859193FF81916F01B5
:102780008111C1CF982F9F7D9554933028F40C5F11
:102790001F4FFFE3F9830DC0833631F0833771F0AB
:1027A000833509F05BC022C0F801808189830E5F08
:1027B0001F4F44244394512C540115C03801F2E0BA
:1027C0006F0E711CF801A080B18026FF03C0652D3B
:1027D00070E002C06FEF7FEFC5012C870E94821668
:1027E0002C0183012C852F77222E17C03801F2E0AF
:1027F0006F0E711CF801A080B18026FF03C0652D0B
:1028000070E002C06FEF7FEFC5012C870E94701649
:102810002C012C852068222E830123FC1BC0832DD4
:1028200090E048165906B0F4B70180E290E00E94AB
:102830008D163A94F4CFF50127FC859127FE8191FE
:102840005F01B70190E00E948D1631103A94F1E0DB
:102850004F1A51084114510471F7E5C0843611F044
:10286000893639F5F80127FF07C0608171818281BF
:1028700093810C5F1F4F08C060817181072E000C8F
:10288000880B990B0E5F1F4F2F76722E97FF09C092
:1028900090958095709561957F4F8F4F9F4F2068E1
:1028A000722E2AE030E0A4010E94C516A82EA818B6
:1028B00044C0853729F42F7EB22E2AE030E025C0AF
:1028C000F22FF97FBF2E8F36C1F018F4883579F0DA
:1028D000B4C0803719F0883721F0AFC02F2F2061A6
:1028E000B22EB4FE0DC08B2D8460B82E09C024FF1B
:1028F0000AC09F2F9660B92E06C028E030E005C0C0
:1029000020E130E002C020E132E0F801B7FE07C06C
:1029100060817181828193810C5F1F4F06C060814D
:10292000718180E090E00E5F1F4FA4010E94C516E8
:10293000A82EA818FB2DFF777F2E76FE0BC0372D13
:102940003E7FA51450F474FE0AC072FC08C0372DF7
:102950003E7E05C0BA2C372D03C0BA2C01C0B52C61
:1029600034FF0DC0FE01EA0DF11D8081803311F4AA
:10297000397E09C032FF06C0B394B39404C0832FDC
:10298000867809F0B39433FD13C030FF06C05A2C8B
:10299000B31418F4530C5B18B32CB31468F4B701D8
:1029A00080E290E03C870E948D16B3943C85F5CF81
:1029B000B31410F43B1801C0312C34FF12C0B7011E
:1029C00080E390E03C870E948D163C8532FF17C063
:1029D00031FD03C088E790E002C088E590E0B701D0
:1029E0000CC0832F867859F031FF02C08BE201C002
:1029F00080E237FD8DE2B70190E00E948D16A514AC
:102A000038F4B70180E390E00E948D165A94F7CF16
:102A1000AA94F401EA0DF11D8081B70190E00E94B3
:102A20008D16A110F5CF332009F451CEB70180E205
:102A300090E00E948D163A94F6CFF7018681978137
:102A400002C08FEF9FEF2C96E2E10C9471170F9369
:102A50001F93CF93DF93869F8001879F100D969FD2
:102A6000100D1124C8010E944315EC01009729F0B4
:102A7000A80160E070E00E947B16CE01DF91CF914B
:102A80001F910F910895CF93DF938230910510F439
:102A900082E090E0E0912E03F0912F0320E030E0FF
:102AA000C0E0D0E0309711F14081518148175907BB
:102AB000C0F04817590761F482819381209719F07B
:102AC0009B838A832BC090932F0380932E0326C071
:102AD0002115310519F04217530718F49A01BE0168
:102AE000DF01EF010280F381E02DDCCF21153105FC
:102AF00009F1281B390B2430310590F412968D9181
:102B00009C9113976115710521F0FB0193838283DA
:102B100004C090932F0380932E03FD01329644C08E
:102B2000FD01E20FF31F81939193225031092D9300
:102B30003C933AC020912C0330912D03232B41F478
:102B4000209107013091080130932D0320932C032D
:102B500020910501309106012115310541F42DB771
:102B60003EB74091090150910A01241B350BE091B9
:102B70002C03F0912D03E217F307A0F42E1B3F0B5B
:102B80002817390778F0AC014E5F5F4F24173507DF
:102B900048F04E0F5F1F50932D0340932C038193F9
:102BA000919302C0E0E0F0E0CF01DF91CF91089572
:102BB0000F931F93CF93DF93009709F48CC0FC0110
:102BC00032971382128200912E0310912F03011568
:102BD000110581F420813181820F931F20912C03F4
:102BE00030912D032817390779F5F0932D03E093E1
:102BF0002C0371C0D80140E050E0AE17BF0750F47D
:102C000012962D913C911397AD012115310509F1D3
:102C1000D901F3CF9D01DA01338322836081718171
:102C2000860F971F8217930769F4EC012881398179
:102C3000260F371F2E5F3F4F318320838A819B8170
:102C400093838283452B29F4F0932F03E0932E0383
:102C500042C01396FC93EE931297ED01499159915E
:102C60009E01240F351FE217F30771F480819181D3
:102C7000840F951F029611969C938E938281938167
:102C800013969C938E931297E0E0F0E0D801129691
:102C90008D919C911397009719F0F8018C01F6CF54
:102CA0008D919C9198012E5F3F4F820F931F209131
:102CB0002C0330912D032817390769F4309729F434
:102CC00010922F0310922E0302C0138212821093CF
:102CD0002D0300932C03DF91CF911F910F91089545
:102CE000FC010590615070400110D8F780959095D7
:102CF0008E0F9F1F0895DC0101C06D93415050401D
:102D0000E0F70895FC016150704001900110D8F780
:102D1000809590958E0F9F1F08950F931F93CF93CB
:102D2000DF93FB01238121FD03C08FEF9FEF28C0BC
:102D300022FF16C0468157812481358142175307EF
:102D400044F4A081B1819D012F5F3F4F31832083E7
:102D50008C93268137812F5F3F4F3783268310C0A6
:102D6000EB01092F182F0084F185E02D0995892B9F
:102D7000E1F68E819F8101969F838E83812F902F14
:102D8000DF91CF911F910F910895FA01AA27283062
:102D900051F1203181F1E8946F936E7F6E5F7F4F28
:102DA0008F4F9F4FAF4FB1E03ED0B4E03CD0670FA4
:102DB000781F891F9A1FA11D680F791F8A1F911DF7
:102DC000A11D6A0F711D811D911DA11D20D009F447
:102DD00068943F912AE0269F11243019305D319389
:102DE000DEF6CF010895462F4770405D4193B3E072
:102DF0000FD0C9F7F6CF462F4F70405D4A3318F019
:102E0000495D31FD4052419302D0A9F7EACFB4E0C9
:102E1000A6959795879577956795BA95C9F7009781
:102E20006105710508959B01AC010A2E0694579522
:102E3000479537952795BA95C9F7620F731F841F79
:102E4000951FA01D0895052E97FB1EF400940E9467
:102E50003A1757FD07D00E948C1707FC03D04EF499
:102E60000C943A1750954095309521953F4F4F4F10
:102E70005F4F089590958095709561957F4F8F4F26
:102E80009F4F08950E94AE17A59F900DB49F900D7F
:102E9000A49F800D911D11240895B7FF0C94421733
:102EA0000E944217821B930B08952F923F924F92DC
:102EB0005F926F927F928F929F92AF92BF92CF92CA
:102EC000DF92EF92FF920F931F93CF93DF93CDB7D3
:102ED000DEB7CA1BDB0B0FB6F894DEBF0FBECDBF4B
:102EE00009942A88398848885F846E847D848C841C
:102EF0009B84AA84B984C884DF80EE80FD800C8125
:102F00001B81AA81B981CE0FD11D0FB6F894DEBF07
:102F10000FBECDBFED010895A1E21A2EAA1BBB1B67
:102F2000FD010DC0AA1FBB1FEE1FFF1FA217B30795
:102F3000E407F50720F0A21BB30BE40BF50B661FAB
:102F4000771F881F991F1A9469F76095709580956F
:102F500090959B01AC01BD01CF010895A29FB001E6
:102F6000B39FC001A39F700D811D1124911DB29FBD
:102F7000700D811D1124911D089511E0CFE4D1E061
:102F800004C0FE010E94C3122196C035D107C9F7C3
:042F9000F894FFCFE3
:102F9400FF010000000000300380009604960496B0
:102FA4000496041F061F0696049604150015009641
:102FB4000400000000D3010F089C017A018E011A5D
:102FC400020000000038055E021203060300000040
:102FD4000039056002030002000700080010001118
:102FE4000012001300040005000E000600696E695B
:102FF4007420726164696F0A0074657374206E656D
:10300400636B200A0074657374206D6F746F722093
:103014006677640A0074657374206D6F746F722030
:103024006261636B776172640A0074657374206D06
:103034006F746F722072696768740A0074657374C0
:10304400206D6F746F72206C6566740A007465730A
:10305400742062757A7A65720A0044697374616EC9
:103064006365203D202564636D2C2074696D6520A3
:103074003D2025756D73200A0053746F700A004D4E
:103084006F766520466F72776172640A000D0A00DC
:00000001FF
