:100000000C9438010C9460010C9460010C94600114
:100010000C9460010C9460010C9460010C946001DC
:100020000C9460010C9460010C9460010C946001CC
:100030000C9460010C9460010C9460010C946001BC
:100040000C9403050C9460010C94D1040C94AB0443
:100050000C9460010C9460010C9460010C9460019C
:100060000C9460010C94600150415F4D4158005068
:10007000415F484947480050415F4C4F570050414D
:100080005F4D494E0031362062697473003820623A
:100090006974730044697361626C6564006E5246F2
:1000A00032344C30312B006E524632344C303100F9
:1000B0003235304B42505300324D42505300314D97
:1000C0004250530000000008000201000003040732
:1000D00000000000000000001112131415160A0B96
:1000E0000C0D0E0F5354415455530909203D203037
:1000F00078253032782052585F44523D257820547C
:10010000585F44533D2578204D41585F52543D255A
:10011000782052585F505F4E4F3D25782054585FED
:1001200046554C4C3D25780D0A00504120506F77C4
:10013000657209203D2025530D0A007E0077006F6F
:10014000006800435243204C656E67746809203D87
:100150002025530D0A0094008D0085004D6F6465C5
:100160006C0909203D2025530D0A00A7009D00447D
:10017000617461205261746509203D2025530D0A88
:1001800000BE00B800B00044594E50442F464541CF
:100190005455524500434F4E464947090052465F69
:1001A00053455455500052465F43480900454E5F41
:1001B00052584144445200454E5F41410900525853
:1001C0005F50575F50302D360054585F41444452C1
:1001D000090052585F414444525F50322D3500525D
:1001E000585F414444525F50302D310000010203FA
:1001F0000405524632342F6578616D706C65732F3B
:1002000047657474696E6753746172746564000045
:10021000000000250028002B00000000002400271B
:10022000002A00040404040404040402020202027A
:1002300002030303030303010204081020408001AA
:1002400002040810200102040810200D0A002530C5
:1002500032780020307800255309203D000D0A0037
:100260002030782530327800255309203D004D0597
:1002700011241FBECFEFD8E0DEBFCDBF11E0A0E05C
:10028000B1E0E6E7FAE102C005900D92A833B107AC
:10029000D9F721E0A8E3B1E001C01D92AF3FB2075A
:1002A000E1F711E0C8E3D1E004C02197FE010E940C
:1002B000A208C733D107C9F70E948F050C94390DE6
:1002C0000C94000090E0FC01E95CFD4F2491FC01DE
:1002D000ED5DFD4F8491882399F090E0880F991F80
:1002E000FC01E75EFD4FA591B491FC01E15FFD4F7C
:1002F000859194918FB7F894EC91E22BEC938FBF9A
:100300000895CF92DF92EF92FF920F931F93CF93B6
:10031000DF936C017A018B01C0E0D0E0CE15DF05E0
:1003200089F0D8016D918D01D601ED91FC9101907C
:10033000F081E02DC6010995892B11F47E0102C0E0
:100340002196ECCFC701DF91CF911F910F91FF90C4
:10035000EF90DF90CF900895FC01918D828D9817DA
:1003600061F0828DDF01A80FB11D5D968C91928D99
:100370009F5F9F73928F90E008958FEF9FEF089596
:10038000FC01918D828D981731F0828DE80FF11D5F
:10039000858D90E008958FEF9FEF0895FC01918D7A
:1003A000228D892F90E0805C9F4F821B91098F7373
:1003B0009927089582E491E00E94CE0121E0892BE3
:1003C00009F420E0822F0895FC01848DDF01A80F3D
:1003D000B11DA35ABF4F2C91848D90E001968F736D
:1003E0009927848FA689B7892C93A089B1898C918C
:1003F00080648C93938D848D981306C00288F38952
:10040000E02D80818F7D80830895EF92FF920F937E
:100410001F93CF93DF93EC0181E0888F9B8D8C8DB0
:10042000981305C0E889F989808185FD24C0F62EDE
:100430000B8D10E00F5F1F4F0F731127E02E8C8D77
:10044000E8120CC00FB607FCFACFE889F989808161
:1004500085FFF5CFCE010E94E401F1CF8B8DFE0127
:10046000E80FF11DE35AFF4FF0820B8FEA89FB89F9
:100470008081806207C0EE89FF896083E889F989FD
:1004800080818064808381E090E0DF91CF911F9133
:100490000F91FF90EF900895CF93DF93EC01888D3B
:1004A0008823C9F0EA89FB89808185FD05C0A88978
:1004B000B9898C9186FD0FC00FB607FCF5CF8081FE
:1004C00085FFF2CFA889B9898C9185FFEDCFCE0148
:1004D0000E94E401E7CFDF91CF91089580E090E0A2
:1004E000892B29F00E94DA0181110C9400000895F3
:1004F00090E0FC01EC53FF4F3491FC01E95CFD4FAF
:100500002491FC01ED5DFD4FE491EE2309F43BC025
:10051000332339F1333091F038F43130A9F03230EF
:1005200001F584B58F7D12C0373091F03830A1F0DD
:100530003430B9F4809180008F7D03C080918000B9
:100540008F77809380000DC084B58F7784BD09C0FC
:100550008091B0008F7703C08091B0008F7D809331
:10056000B000F0E0EE0FFF1FE15FFD4FA591B491E9
:100570008FB7F894EC91611103C020952E2301C030
:100580002E2B2C938FBF08953FB7F89480913D0197
:1005900090913E01A0913F01B091400126B5A89BEA
:1005A00005C02F3F19F00196A11DB11D3FBFBA2F05
:1005B000A92F982F8827820F911DA11DB11DBC0165
:1005C000CD0142E0660F771F881F991F4A95D1F72A
:1005D00008958F929F92AF92BF92CF92DF92EF9247
:1005E000FF920E94C4024B015C0185E0C82ED12C11
:1005F000E12CF12C0E94C402DC01CB01881999097D
:10060000AA09BB09883E9340A105B10558F021E035
:10061000C21AD108E108F10888EE880E83E0981E1E
:10062000A11CB11CC114D104E104F10419F7FF901D
:10063000EF90DF90CF90BF90AF909F908F900895F4
:100640008EBD00000DB407FEFDCF8EB50895CF938B
:10065000C82F682F82E491E00E9405028C2FCC0FF6
:10066000990BCF9108959CB59F7D9CBD9CB5937FC0
:100670009CBD9CB59C7F9CBD9DB591609DBD682F28
:100680008091E0010E9478028091F1019091F20145
:100690008230910538F0880F991F880F991F0597B0
:1006A0000197F1F7089581E00C94330380E00C94F6
:1006B00033031F93CF93DF9300D0CDB7DEB76A83A8
:1006C00089830E94560389818F7180620E94200372
:1006D000182F6A81862F0E9420030E945303812FC6
:1006E0000F900F90DF91CF911F910895CF93DF93DB
:1006F0001F92CDB7DEB789830E94560389818F711F
:100700000E9420038FEF0E94200389830E945303DD
:1007100089810F90DF91CF91089580E00E94760348
:1007200081FD07C0682F626080E00E9459030C942D
:10073000E9020895EF92FF920F931F93CF93DF93F7
:1007400000D01F92CDB7DEB7162F4A837B838983F3
:100750000E94560389818F7180620E942003082FB6
:10076000E12E7B81F72E4A81140F1E1531F0F7011F
:1007700081917F010E942003F8CF0E945303802FB4
:100780000F900F900F90DF91CF911F910F91FF90DD
:10079000EF900895EF92FF920F931F93CF93DF9303
:1007A0001F92CDB7DEB7E42E9F938F9388E692E039
:1007B0009F938F9369830E940E096981E60E0F90C3
:1007C0000F900F900F9000E612E06E1591F0FF244D
:1007D000F394F60E862F0E9476031F928F931F9339
:1007E0000F930E940E090F900F900F900F906F2D96
:1007F000ECCF8DE592E09F938F930E940E090F90AE
:100800000F900F90DF91CF911F910F91FF90EF907C
:1008100008952F923F924F925F926F927F928F92A4
:100820009F92AF92BF92CF92DF92EF92FF920F937F
:100830001F93CF93DF931F92CDB7DEB7562E342E82
:100840006DB67EB69F938F9387E592E09F938F93CB
:100850000E940E09350C0F900F900F900F9083E5BA
:10086000C82E82E0D82E9EE4A92E92E0B92E531411
:1008700009F44EC08DB69EB69091EB01092F10E0A1
:100880002DB73EB7201B310B0FB6F8943EBF0FBEFD
:100890002DBFEDB7FEB731967F0122242394250C9E
:1008A00099830E945603852D8F710E942003270192
:1008B00099819E0D941549F08FEF99830E94200332
:1008C000F20181932F019981F5CF0E945303DF92AA
:1008D000CF920E940E090E0D1F1D0F900F90015018
:1008E00011090E151F0568F0F80180811F928F9382
:1008F000BF92AF920E940E090F900F900F900F9031
:10090000EECF0FB6F8949EBE0FBE8DBE522CAFCF69
:100910008BE492E09F938F930E940E090F900F90AB
:100920000FB6F8947EBE0FBE6DBE0F90DF91CF91D3
:100930001F910F91FF90EF90DF90CF90BF90AF90FD
:100940009F908F907F906F905F904F903F902F90EF
:1009500008950E94A8081F920F920FB60F921124BB
:100960002F933F934F935F936F937F938F939F93B7
:10097000AF93BF93EF93FF9382E491E00E94E40171
:10098000FF91EF91BF91AF919F918F917F916F9167
:100990005F914F913F912F910F900FBE0F901F903D
:1009A00018951F920F920FB60F9211242F938F93C9
:1009B0009F93EF93FF93E0915201F0915301808157
:1009C000E0915801F091590182FD12C0908180910F
:1009D0005B018F5F8F7320915C01821751F0E09172
:1009E0005B01F0E0EE5BFE4F958F80935B0101C0F1
:1009F0008081FF91EF919F918F912F910F900FBE6A
:100A00000F901F9018951F920F920FB60F921124FE
:100A10002F933F938F939F93AF93BF93809139010F
:100A200090913A01A0913B01B0913C013091380185
:100A300023E0230F2D3720F40196A11DB11D05C021
:100A400026E8230F0296A11DB11D20933801809343
:100A5000390190933A01A0933B01B0933C018091FE
:100A60003D0190913E01A0913F01B091400101965E
:100A7000A11DB11D80933D0190933E01A0933F01C4
:100A8000B0934001BF91AF919F918F913F912F9172
:100A90000F900FBE0F901F901895E2E4F1E01382C3
:100AA000128288EE93E0A0E0B0E084839583A68371
:100AB000B7838AE091E09183808385EC90E095870D
:100AC000848784EC90E09787868780EC90E0918B18
:100AD000808B81EC90E0938B828B82EC90E0958B05
:100AE000848B86EC90E0978B868B118E128E138E02
:100AF000148EEFEDF1E087E0808388E0818314823B
:100B000080E28583168285E0848785E090E0A0E01E
:100B1000B0E0828B938BA48BB58B17820895CF9313
:100B2000DF93CDB7DEB72F970FB6F894DEBF0FBEB9
:100B3000CDBF789484B5826084BD84B5816084BD66
:100B400085B5826085BD85B5816085BD80916E006B
:100B5000816080936E00109281008091810082609C
:100B600080938100809181008160809381008091D9
:100B700080008160809380008091B10084608093C8
:100B8000B1008091B00081608093B00080917A00C4
:100B9000846080937A0080917A00826080937A00EA
:100BA00080917A00816080937A0080917A008068D9
:100BB00080937A001092C10060E070E087E293E0D9
:100BC0000E94C308E0915201F091530182E08083BA
:100BD000E0914E01F0914F011082E0915001F091AF
:100BE000510180E1808310925A01E0915601F09109
:100BF000570186E08083E0915401F0915501808196
:100C000080618083E0915401F0915501808188607A
:100C10008083E0915401F091550180818068808348
:100C2000E0915401F091550180818F7D808302EF26
:100C300011E0F8016491611111C042E050E066E1F9
:100C400071E082E491E00E9481018091DF01909146
:100C5000E001891791F00E9462010FC0E09142010A
:100C6000F09143010190F081E02D82E491E009953B
:100C70000F5F1F4F892BE9F6E0CF8091E001909143
:100C8000DF0198130E9462011FB7F894809141011F
:100C9000811124C0EDE2F2E08491E1E4F2E094916C
:100CA000E82FF0E0EE0FFF1FE75EFD4FA591B49136
:100CB000EC91E92321F461E08AE00E9478028AE065
:100CC0000E9462018CB580618CBD8CB580648CBD46
:100CD0008DE00E9462018BE00E94620180914101DF
:100CE0008F5F809341011FBF8091DF019091E001F0
:100CF000891719F060E00E94780281E00E943303B6
:100D00000E94E9026CE080E00E9459036FE584E0F4
:100D10000E94590386E00E947603877D182F106297
:100D20008BE990E0A0E0B0E08093ED019093EE01BC
:100D3000A093EF01B093F001612F86E00E94590368
:100D400086E00E947603811709F4CBC186E00E94F9
:100D5000760386E00E94760345E550E060E070E0AF
:100D60004093ED015093EE016093EF017093F00119
:100D7000682F677D86E00E94590386E00E94760313
:100D80000E94560380E50E94200383E70E9420030F
:100D90000E94530360E08DE10E94590360E08CE102
:100DA0000E94590360E787E00E9459036CE485E0E4
:100DB0000E9459030E94560382EE0E9420030E9463
:100DC00053030E94560381EE0E9420030E945303A6
:100DD0000E948D0380E00E947603682F6E7F80E082
:100DE0000E94590386E00E947603887F682F636023
:100DF00086E00E9459036FE381E00E9459036FE08F
:100E000084E00E94590381E789839DEC9A838BEAF1
:100E10008B839C838D831E821F821886EFEDF0E00A
:100E200084914091EB01BE016F5F7F4F0E949A0356
:100E3000E9EDF0E084916091E4010E94590382E0C1
:100E40000E947603EDEEF1E0E49161E070E001C014
:100E5000660FEA95EAF7682B82E00E9459030E9428
:100E600056038FEF0E9420038F870E9453038F85C4
:100E7000282F30E0982F91701F929F9335952795DA
:100E8000277033273F932F9384FB992790F91F9264
:100E90009F9385FB992790F91F929F9386FB992733
:100EA00090F91F929F931F928F9384EE90E09F93EF
:100EB0008F930E940E0942E06AE08FED91E00E945C
:100EC000090444E06CE082ED91E00E94CA0341E035
:100ED00060E189EC91E00E94090446E061E18EEB5B
:100EE00091E00E94CA0341E061E087EB91E00E943B
:100EF000CA0341E062E08DEA91E00E94CA0341E04A
:100F000065E086EA91E00E94CA0341E066E08DE96F
:100F100091E00E94CA0341E060E085E991E00E940F
:100F2000CA0342E06CE187E891E00E94CA0386E0D0
:100F30000E94760388720FB6F894DEBF0FBECDBF55
:100F4000803241F021E090E0883009F020E0E22F8B
:100F5000F92F02C0E2E0F0E0EE0FFF1FEF57FE4F67
:100F6000859194919F938F938FE691E09F938F93B8
:100F70000E940E09E091E301F0E0EE0FFF1FE5593A
:100F8000FE4F859194919F938F938CE591E09F9371
:100F90008F930E940E0980E00E947603182F81E053
:100FA0000E9476030FB6F894DEBF0FBECDBF13FDCF
:100FB00002C0882329F012FD06C0E1E0F0E005C080
:100FC000E0E0F0E002C0E2E0F0E0EE0FFF1FEA5ADE
:100FD000FE4F859194919F938F9383E491E09F932B
:100FE0008F930E940E0986E00E9476038670E82F98
:100FF000F0E0E55CFE4F859194919F938F938AE298
:1010000091E09F938F930E940E090E948D0380E0D0
:101010000E947603682F616080E00E94590360E7B8
:1010200087E00E9459038091DF010FB6F894DEBF7C
:101030000FBECDBF9091E001891719F061E00E94C9
:1010400078028091E601882341F04091EB0166EE41
:1010500071E08AE00E949A0312C082E00E94760347
:10106000ECEEF1E0E49121E030E001C0220FEA95DE
:10107000EAF72095622F682382E00E9459038DE1F0
:101080000E94760381FF07C00E94560381EE0E94F2
:1010900020030E94530389E1E82E81E0F82E87E1C6
:1010A0000E94760380FD1AC087E10E94760380FFCC
:1010B0001CC08C858F938B858F938A858F938985B0
:1010C0008F938E858F938D858F93FF92EF920E94E1
:1010D000AD080FB6F894DEBF0FBECDBF0E946E0202
:1010E000DECF81E08093E30131CE1091E401163030
:1010F00038F106E08091E501811102C0101B01C0AA
:1011000010E00E94560381E60E942003CE0109965A
:101110006C01015038F08FEF0E942003F60181939B
:101120006F01F7CF112329F08FEF0E942003115098
:10113000F9CF0E94530360E787E00E945903B4CFC0
:10114000012FD8CFEE0FFF1F0590F491E02D0994E9
:1011500081E090E0F8940C94390DA0E0B0E0E3EB6E
:10116000F8E00C94120DAE014B5F5F4FFA016191F4
:101170007191AF018091F7019091F8010E943409BB
:10118000E2E00C942E0D0F931F93CF93DF93009703
:1011900031F46115710519F480E090E03AC08B01DB
:1011A000EC016EE070E081E090E00E94060BFC0133
:1011B000892B91F380E883830115110571F0138762
:1011C000028781E883838091F5019091F601892B54
:1011D00021F4F093F601E093F5012097C9F0D1874F
:1011E000C0878381826083838091F7019091F801A9
:1011F000892B71F4F093F801E093F7018091F901E4
:101200009091FA01892B21F4F093FA01E093F9010E
:10121000CF01DF91CF911F910F910895A0E0B0E031
:10122000E4E1F9E00C94100DAE01495F5F4FDA0183
:101230006D917D91AD0105EF11E0F80182819381FF
:10124000DC0113962C911397286013962C930E941F
:101250003409D8011296ED91FC9113972381277FD1
:101260002383E4E00C942C0DACE0B0E0EAE3F9E079
:101270000C94020D7C016B018A01FC01178216821D
:10128000838181FFBDC1CE0101964C01F70193819D
:10129000F60193FD859193FF81916F01882309F4F5
:1012A000ABC1853239F493FD859193FF81916F0134
:1012B000853229F4B70190E00E946C0CE7CF512CE5
:1012C000312C20E02032A0F48B3269F030F48032EF
:1012D00059F0833269F420612CC08D3239F08033AB
:1012E00039F4216026C02260246023C0286021C018
:1012F00027FD27C030ED380F3A3078F426FF06C0BE
:10130000FAE05F9E300D1124532E13C08AE0389E00
:10131000300D1124332E20620CC08E3221F426FDB4
:101320006BC1206406C08C3611F4206802C0883678
:1013300041F4F60193FD859193FF81916F01811135
:10134000C1CF982F9F7D9554933028F40C5F1F4F89
:10135000FFE3F9830DC0833631F0833771F08335B5
:1013600009F05BC022C0F801808189830E5F1F4FA6
:1013700044244394512C540115C03801F2E06F0EFF
:10138000711CF801A080B18026FF03C0652D70E0BC
:1013900002C06FEF7FEFC5012C870E94610C2C010A
:1013A00083012C852F77222E17C03801F2E06F0EB3
:1013B000711CF801A080B18026FF03C0652D70E08C
:1013C00002C06FEF7FEFC5012C870E944F0C2C01EC
:1013D0002C852068222E830123FC1BC0832D90E0E6
:1013E00048165906B0F4B70180E290E00E946C0CF8
:1013F0003A94F4CFF50127FC859127FE81915F0196
:10140000B70190E00E946C0C31103A94F1E04F1A51
:1014100051084114510471F7E5C0843611F0893642
:1014200039F5F80127FF07C06081718182819381BE
:101430000C5F1F4F08C060817181072E000C880B64
:10144000990B0E5F1F4F2F76722E97FF09C0909554
:101450008095709561957F4F8F4F9F4F2068722EBA
:101460002AE030E0A4010E94A40CA82EA81844C0D1
:10147000853729F42F7EB22E2AE030E025C0F22FE6
:10148000F97FBF2E8F36C1F018F4883579F0B4C0DB
:10149000803719F0883721F0AFC02F2F2061B22E8E
:1014A000B4FE0DC08B2D8460B82E09C024FF0AC085
:1014B0009F2F9660B92E06C028E030E005C020E1DD
:1014C00030E002C020E132E0F801B7FE07C06081E1
:1014D0007181828193810C5F1F4F06C06081718191
:1014E00080E090E00E5F1F4FA4010E94A40CA82E84
:1014F000A818FB2DFF777F2E76FE0BC0372D3E7F81
:10150000A51450F474FE0AC072FC08C0372D3E7E4C
:1015100005C0BA2C372D03C0BA2C01C0B52C34FF3E
:101520000DC0FE01EA0DF11D8081803311F4397E7A
:1015300009C032FF06C0B394B39404C0832F8678E9
:1015400009F0B39433FD13C030FF06C05A2CB31416
:1015500018F4530C5B18B32CB31468F4B70180E291
:1015600090E03C870E946C0CB3943C85F5CFB3149B
:1015700010F43B1801C0312C34FF12C0B70180E3D6
:1015800090E03C870E946C0C3C8532FF17C031FD17
:1015900003C088E790E002C088E590E0B7010CC086
:1015A000832F867859F031FF02C08BE201C080E2C0
:1015B00037FD8DE2B70190E00E946C0CA51438F461
:1015C000B70180E390E00E946C0C5A94F7CFAA9484
:1015D000F401EA0DF11D8081B70190E00E946C0CCE
:1015E000A110F5CF332009F451CEB70180E290E08D
:1015F0000E946C0C3A94F6CFF7018681978102C065
:101600008FEF9FEF2C96E2E10C941E0D0F931F932A
:10161000CF93DF93869F8001879F100D969F100DBB
:101620001124C8010E94220BEC01009729F0A801A7
:1016300060E070E00E945A0CCE01DF91CF911F91C3
:101640000F910895CF93DF938230910510F482E0DB
:1016500090E0E091FD01F091FE0120E030E0C0E07B
:10166000D0E0309711F14081518148175907C0F0FF
:101670004817590761F482819381209719F09B8361
:101680008A832BC09093FE018093FD0126C0211513
:10169000310519F04217530718F49A01BE01DF0112
:1016A000EF010280F381E02DDCCF2115310509F136
:1016B000281B390B2430310590F412968D919C91A2
:1016C00013976115710521F0FB019383828304C098
:1016D0009093FE018093FD01FD01329644C0FD010F
:1016E000E20FF31F81939193225031092D933C9384
:1016F0003AC02091FB013091FC01232B41F4209151
:101700000201309103013093FC012093FB012091F1
:101710000001309101012115310541F42DB73EB78B
:101720004091040150910501241B350BE091FB0110
:10173000F091FC01E217F307A0F42E1B3F0B2817D2
:10174000390778F0AC014E5F5F4F2417350748F03A
:101750004E0F5F1F5093FC014093FB0181939193C7
:1017600002C0E0E0F0E0CF01DF91CF9108950F9348
:101770001F93CF93DF93009709F48CC0FC0132973D
:10178000138212820091FD011091FE0101151105D5
:1017900081F420813181820F931F2091FB013091D0
:1017A000FC012817390779F5F093FC01E093FB0160
:1017B00071C0D80140E050E0AE17BF0750F4129658
:1017C0002D913C911397AD012115310509F1D901F6
:1017D000F3CF9D01DA013383228360817181860F0B
:1017E000971F8217930769F4EC0128813981260F2E
:1017F000371F2E5F3F4F318320838A819B819383E4
:101800008283452B29F4F093FE01E093FD0142C051
:101810001396FC93EE931297ED01499159919E0115
:10182000240F351FE217F30771F480819181840F33
:10183000951F029611969C938E93828193811396A5
:101840009C938E931297E0E0F0E0D80112968D9170
:101850009C911397009719F0F8018C01F6CF8D91A8
:101860009C9198012E5F3F4F820F931F2091FB01A7
:101870003091FC012817390769F4309729F4109248
:10188000FE011092FD0102C0138212821093FC012E
:101890000093FB01DF91CF911F910F910895FC01FF
:1018A0000590615070400110D8F7809590958E0F8B
:1018B0009F1F0895DC0101C06D9341505040E0F737
:1018C0000895FC016150704001900110D8F7809597
:1018D00090958E0F9F1F08950F931F93CF93DF93C3
:1018E000FB01238121FD03C08FEF9FEF28C022FF62
:1018F00016C046815781248135814217530744F42D
:10190000A081B1819D012F5F3F4F318320838C9354
:10191000268137812F5F3F4F3783268310C0EB012D
:10192000092F182F0084F185E02D0995892BE1F608
:101930008E819F8101969F838E83812F902FDF91CF
:10194000CF911F910F910895FA01AA27283051F1E4
:10195000203181F1E8946F936E7F6E5F7F4F8F4FE0
:101960009F4FAF4FB1E03ED0B4E03CD0670F781F3F
:10197000891F9A1FA11D680F791F8A1F911DA11D24
:101980006A0F711D811D911DA11D20D009F468945D
:101990003F912AE0269F11243019305D3193DEF605
:1019A000CF010895462F4770405D4193B3E00FD0BB
:1019B000C9F7F6CF462F4F70405D4A3318F0495DA6
:1019C00031FD4052419302D0A9F7EACFB4E0A69589
:1019D0009795879577956795BA95C9F700976105AB
:1019E000710508959B01AC010A2E06945795479501
:1019F00037952795BA95C9F7620F731F841F951FF6
:101A0000A01D08952F923F924F925F926F927F9206
:101A10008F929F92AF92BF92CF92DF92EF92FF92FE
:101A20000F931F93CF93DF93CDB7DEB7CA1BDB0BAA
:101A30000FB6F894DEBF0FBECDBF09942A8839884F
:101A400048885F846E847D848C849B84AA84B98456
:101A5000C884DF80EE80FD800C811B81AA81B98162
:101A6000CE0FD11D0FB6F894DEBF0FBECDBFED0176
:061A70000895F894FFCF79
:101A76000000FF0180000000000005028101CE0188
:101A8600AC01C0014C020D0A0044697374616E63B7
:101A960065203D202564636D2C2074696D65203DAD
:081AA6002025756D73200A0074
:00000001FF
