:100000000C947A000C9465040C943E040C94A200A9
:100010000C94A2000C94A2000C94A2000C94A200D8
:100020000C94A2000C94A2000C94A2000C94A200C8
:100030000C94A2000C94A2000C94A2000C94A200B8
:100040000C94F4030C94A2000C94C2030C949C0333
:100050000C94A2000C94A2000C94A2000C94A20098
:100060000C94A2000C94A200000000080002010001
:100070000003040700000000000000001112131428
:1000800015160A0B0C0D0E0F0001020304052A2A97
:100090002A2057616974696E6720666F72206D65EA
:1000A00073736167652066726F6D204D7220526FA9
:1000B000626F74210000000000250028002B000062
:1000C000000000240027002A00040404040404049F
:1000D00004020202020202030303030303010204F7
:1000E00008102040800102040810200102040810BA
:1000F00020008C0411241FBECFEFD8E0DEBFCDBF9F
:1001000011E0A0E0B1E0E4E5F3E102C005900D925A
:10011000AA35B107D9F722E0AAE5B1E001C01D92E6
:10012000A132B207E1F710E0CAE7D0E004C021979E
:10013000FE010E94D206C937D107C9F70E94CE043A
:100140000C94A8090C94000090E0FC01E352FF4FCE
:100150002491FC01E753FF4F8491882399F090E0AC
:10016000880F991FFC01E154FF4FA591B491FC0148
:10017000EB54FF4F859194918FB7F894EC91E22B5B
:10018000EC938FBF0895CF92DF92EF92FF920F937F
:100190001F93CF93DF936C017A018B01C0E0D0E015
:1001A000CE15DF0589F0D8016D918D01D601ED9155
:1001B000FC910190F081E02DC6010995892B11F485
:1001C0007E0102C02196ECCFC701DF91CF911F9134
:1001D0000F91FF90EF90DF90CF900895FC01918DEB
:1001E000828D981761F0828DDF01A80FB11D5D9699
:1001F0008C91928D9F5F9F73928F90E008958FEF07
:100200009FEF0895FC01918D828D981731F0828DBA
:10021000E80FF11D858D90E008958FEF9FEF089511
:10022000FC01918D228D892F90E0805C9F4F821B75
:1002300091098F739927089588E691E00E94100133
:1002400021E0892B09F420E0822F0895FC01848DA0
:10025000DF01A80FB11DA35ABF4F2C91848D90E0F0
:1002600001968F739927848FA689B7892C93A089CB
:10027000B1898C9180648C93938D848D981306C082
:100280000288F389E02D80818F7D80830895EF922D
:10029000FF920F931F93CF93DF93EC0181E0888F40
:1002A0009B8D8C8D981305C0E889F989808185FD27
:1002B00024C0F62E0B8D10E00F5F1F4F0F73112718
:1002C000E02E8C8DE8120CC00FB607FCFACFE8893F
:1002D000F989808185FFF5CFCE010E942601F1CFFB
:1002E0008B8DFE01E80FF11DE35AFF4FF0820B8F5B
:1002F000EA89FB898081806207C0EE89FF8960837B
:10030000E889F98980818064808381E090E0DF91D1
:10031000CF911F910F91FF90EF900895CF93DF93AE
:10032000EC01888D8823C9F0EA89FB89808185FDED
:1003300005C0A889B9898C9186FD0FC00FB607FC4E
:10034000F5CF808185FFF2CFA889B9898C9185FF8F
:10035000EDCFCE010E942601E7CFDF91CF91089526
:1003600080E090E0892B29F00E941C0181110C94FF
:100370000000089590E0FC01E859FF4F3491FC0122
:10038000E352FF4F2491FC01E753FF4FE491EE232A
:1003900009F43BC0332339F1333091F038F4313074
:1003A000A9F0323001F584B58F7D12C0373091F05D
:1003B0003830A1F03430B9F4809180008F7D03C0D3
:1003C000809180008F77809380000DC084B58F77F7
:1003D00084BD09C08091B0008F7703C08091B000C8
:1003E0008F7D8093B000F0E0EE0FFF1FEB54FF4FC6
:1003F000A591B4918FB7F894EC91611103C0209549
:100400002E2301C02E2B2C938FBF08953FB7F89455
:100410008091630190916401A0916501B0916601A2
:1004200026B5A89B05C02F3F19F00196A11DB11D4F
:100430003FBFBA2FA92F982F8827820F911DA11D8A
:10044000B11DBC01CD0142E0660F771F881F991FC7
:100450004A95D1F708958F929F92AF92BF92CF9213
:10046000DF92EF92FF926B017C010E9406024B012A
:100470005C01C114D104E104F104F1F00E94060210
:10048000DC01CB0188199909AA09BB09883E934070
:10049000A105B10570F321E0C21AD108E108F10805
:1004A00088EE880E83E0981EA11CB11CC114D104F3
:1004B000E104F10419F7DDCFFF90EF90DF90CF90CA
:1004C000BF90AF909F908F90089508958EBD0000CB
:1004D0000DB407FEFDCF8EB508959CB59F7D9CBDE4
:1004E0009CB5937F9CBD9CB59C7F9CBD9DB5916048
:1004F0009DBD682F809106020E94BA01809117026B
:10050000909118028230910538F0880F991F880F5A
:10051000991F05970197F1F7089581E00C946D02FA
:1005200080E00C946D021F93CF93DF9300D0CDB782
:10053000DEB76A8389830E94900289818F7180620D
:100540000E946602182F6A81862F0E9466020E940E
:100550008D02812F0F900F90DF91CF911F91089501
:10056000CF93DF931F92CDB7DEB789830E949002AD
:1005700089818F710E9466028FEF0E9466028983D3
:100580000E948D0289810F90DF91CF91089580E0C4
:100590000E94B00281FD0BC0682F626080E00E9463
:1005A000930265E070E080E090E00C942B020895E7
:1005B000EF92FF920F931F93CF93DF9300D01F9280
:1005C000CDB7DEB7162F4A837B8389830E949002C2
:1005D00089818F7180620E946602082FE12E7B81E3
:1005E000F72E4A81140F1E1531F0F70181917F011A
:1005F0000E946602F8CF0E948D02802F0F900F900C
:100600000F90DF91CF911F910F91FF90EF90089580
:100610000E94D806EF92FF920F931F93CF93DF9320
:1006200000D0CDB7DEB760E787E00E949302082FC5
:100630000071182F107485FF08C084E191E09F932A
:100640008F930E94DD060F900F90002341F087E208
:1006500091E09F938F930E94DD060F900F901123DE
:1006600009F461C010910A02123010F4012F01C088
:1006700002E080910B02811102C0101B01C010E04A
:100680000E94900281E60E946602CE0101967C01E2
:10069000015038F08FEF0E946602F70181937F01CD
:1006A000F7CF112329F08FEF0E9466021150F9CF86
:1006B0000E948D0260E787E00E9493028A818F93F7
:1006C00089818F938CE391E09F938F930E94DD0645
:1006D0000E94900289EA0E9466020F900F900F908C
:1006E0000F900AE511E084E0F82EF00EF01631F0DC
:1006F000F80181918F010E946602F8CF0E948D025D
:1007000080915A0190915B01A0915C01B0915D01D3
:100710000196A11DB11D80935A0190935B01A09396
:100720005C01B0935D010F900F90DF91CF911F910D
:100730000F91FF90EF9008951F920F920FB60F92B6
:1007400011242F933F934F935F936F937F938F93D6
:100750009F93AF93BF93EF93FF9388E691E00E943E
:100760002601FF91EF91BF91AF919F918F917F9162
:100770006F915F914F913F912F910F900FBE0F900E
:100780001F9018951F920F920FB60F9211242F935E
:100790008F939F93EF93FF93E0917801F09179010C
:1007A0008081E0917E01F0917F0182FD12C09081F5
:1007B000809181018F5F8F7320918201821751F0A8
:1007C000E0918101F0E0E859FE4F958F809381011F
:1007D00001C08081FF91EF919F918F912F910F9098
:1007E0000FBE0F901F9018951F920F920FB60F9289
:1007F00011242F933F938F939F93AF93BF93809137
:100800005F0190916001A0916101B091620130910E
:100810005E0123E0230F2D3720F40196A11DB11DA9
:1008200005C026E8230F0296A11DB11D20935E018D
:1008300080935F0190936001A0936101B093620186
:100840008091630190916401A0916501B09166016E
:100850000196A11DB11D8093630190936401A09343
:100860006501B0936601BF91AF919F918F913F91C8
:100870002F910F900FBE0F901F9018951F920F92FF
:100880000FB60F9211242F933F934F935F936F9363
:100890007F938F939F93AF93BF93EF93FF93E091D9
:1008A0000201F09103010995FF91EF91BF91AF9182
:1008B0009F918F917F916F915F914F913F912F9178
:1008C0000F900FBE0F901F9018951F920F920FB6AA
:1008D0000F9211242F933F934F935F936F937F93C6
:1008E0008F939F93AF93BF93EF93FF93E09100019A
:1008F000F09101010995FF91EF91BF91AF919F9107
:100900008F917F916F915F914F913F912F910F90B8
:100910000FBE0F901F901895E8E6F1E01382128247
:1009200088EE93E0A0E0B0E084839583A683B7834C
:1009300088E091E09183808385EC90E095878487BF
:1009400084EC90E09787868780EC90E0918B808B99
:1009500081EC90E0938B828B82EC90E0958B848B82
:1009600086EC90E0978B868B118E128E138E148EF0
:10097000E5E0F2E087E0808388E08183148280E212
:100980008583168285E0848785E090E0A0E0B0E072
:10099000828B938BA48BB58B17820895CF93DF93B3
:1009A000CDB7DEB728970FB6F894DEBF0FBECDBF28
:1009B000789484B5826084BD84B5816084BD85B53A
:1009C000826085BD85B5816085BD80916E00816046
:1009D00080936E00109281008091810082608093EC
:1009E00081008091810081608093810080918000EE
:1009F0008160809380008091B10084608093B10019
:100A00008091B00081608093B00080917A00846012
:100A100080937A0080917A00826080937A0080913E
:100A20007A00816080937A0080917A008068809358
:100A30007A001092C100E0917801F091790182E092
:100A40008083E0917401F09175011082E09176014C
:100A5000F09177018FEC808310928001E0917C010E
:100A6000F0917D0186E08083E0917A01F0917B0135
:100A7000808180618083E0917A01F0917B018081A7
:100A800088608083E0917A01F0917B0180818068A9
:100A90008083E0917A01F0917B0180818F7D80835A
:100AA0000EE810E0F8016491611117C042E050E0D7
:100AB00067E571E088E691E00E94C30068EE73E0AC
:100AC00080E090E00E942B02809105029091060246
:100AD000891791F00E94A4000FC0E0916801F09185
:100AE00069010190F081E02D88E691E009950F5FA2
:100AF0001F4F892BB9F6DACF80910602909105023B
:100B000098130E94A4001FB7F89480916701811187
:100B100024C0E3EDF0E08491E7EEF0E09491E82F5B
:100B2000F0E0EE0FFF1FE154FF4FA591B491EC915F
:100B3000E92321F461E08AE00E94BA018AE00E9480
:100B4000A4008CB580618CBD8CB580648CBD8DE0BB
:100B50000E94A4008BE00E94A400809167018F5F37
:100B6000809367011FBF809105029091060289174B
:100B700019F060E00E94BA0181E00E946D0265E018
:100B800070E080E090E00E942B026CE080E00E9428
:100B900093026FE584E00E94930286E00E94B00217
:100BA000877D182F10628BE990E0A0E0B0E0809381
:100BB000130290931402A0931502B0931602612FB2
:100BC00086E00E94930286E00E94B002811709F439
:100BD000E5C086E00E94B00286E00E94B00245E5D2
:100BE00050E060E070E04093130250931402609371
:100BF000150270931602682F677D86E00E949302AB
:100C000086E00E94B0020E94900280E50E94660287
:100C100083E70E9466020E948D0260E08DE10E94DF
:100C2000930260E08CE10E94930260E787E00E94FB
:100C300093026CE485E00E9493020E94900282EE8F
:100C40000E9466020E948D020E94900281EE0E9424
:100C500066020E948D020E94C70280E00E94B002DC
:100C6000682F6E7F80E00E94930286E00E94B002AF
:100C7000887F682F636086E00E9493028DE10E9466
:100C8000B002682F66608DE10E9493028CE10E94A1
:100C9000B002682F63608CE10E94930281E0809330
:100CA0000B028AE093E09093010180930001809110
:100CB00069008C7F826080936900E89A81EE898365
:100CC00080EF8A838B8388EE8C838D831E821F82C4
:100CD0001886E3E8F0E0849140911102BE016F5F55
:100CE0007F4F0E94D802EDE7F0E0849160910A0204
:100CF0000E94930282E00E94B002E9E8F0E0E491F1
:100D000061E070E001C0660FEA95EAF7682B82E0C7
:100D10000E9493020E94C70280E00E94B002682FE6
:100D2000616080E00E94930260E787E00E94930286
:100D30008091050290910602891719F061E00E94E6
:100D4000BA0180910C02882341F0409111026CE0BD
:100D500072E08AE00E94D80212C082E00E94B002D3
:100D6000E8E8F0E0E49121E030E001C0220FEA95EC
:100D7000EAF72095622F682382E00E9493028DE1BA
:100D80000E94B00281FF07C00E94900281EE0E9483
:100D900066020E948D020E94B001FDCF81E0809327
:100DA000090217CFEE0FFF1F0590F491E02D099473
:100DB00081E090E0F8940C94A809A0E0B0E0E3EEA4
:100DC000F6E00C948109AE014B5F5F4FFA0161912F
:100DD0007191AF0180911D0290911E020E94F30655
:100DE000E2E00C949D09ACE0B0E0E9EFF6E00C9491
:100DF00071097C016B018A01FC01178216828381D3
:100E000081FFBDC1CE0101964C01F7019381F6012E
:100E100093FD859193FF81916F01882309F4ABC104
:100E2000853239F493FD859193FF81916F0185326D
:100E300029F4B70190E00E94DB08E7CF512C312C58
:100E400020E02032A0F48B3269F030F4803259F087
:100E5000833269F420612CC08D3239F0803339F44B
:100E6000216026C02260246023C0286021C027FDA5
:100E700027C030ED380F3A3078F426FF06C0FAE08C
:100E80005F9E300D1124532E13C08AE0389E300D22
:100E90001124332E20620CC08E3221F426FD6BC14A
:100EA000206406C08C3611F4206802C0883641F4F4
:100EB000F60193FD859193FF81916F018111C1CF5F
:100EC000982F9F7D9554933028F40C5F1F4FFFE3BC
:100ED000F9830DC0833631F0833771F0833509F023
:100EE0005BC022C0F801808189830E5F1F4F4424BC
:100EF0004394512C540115C03801F2E06F0E711C5F
:100F0000F801A080B18026FF03C0652D70E002C00B
:100F10006FEF7FEFC5012C870E94D0082C01830161
:100F20002C852F77222E17C03801F2E06F0E711C2E
:100F3000F801A080B18026FF03C0652D70E002C0DB
:100F40006FEF7FEFC5012C870E94C5082C012C850F
:100F50002068222E830123FC1BC0832D90E04816BD
:100F60005906B0F4B70180E290E00E94DB083A94A1
:100F7000F4CFF50127FC859127FE81915F01B70130
:100F800090E00E94DB0831103A94F1E04F1A5108CA
:100F90004114510471F7E5C0843611F0893639F5F2
:100FA000F80127FF07C060817181828193810C5F06
:100FB0001F4F08C060817181072E000C880B990BB0
:100FC0000E5F1F4F2F76722E97FF09C09095809568
:100FD000709561957F4F8F4F9F4F2068722E2AE04A
:100FE00030E0A4010E941309A82EA81844C0853738
:100FF00029F42F7EB22E2AE030E025C0F22FF97FAF
:10100000BF2E8F36C1F018F4883579F0B4C0803720
:1010100019F0883721F0AFC02F2F2061B22EB4FE17
:101020000DC08B2D8460B82E09C024FF0AC09F2FED
:101030009660B92E06C028E030E005C020E130E01F
:1010400002C020E132E0F801B7FE07C06081718183
:10105000828193810C5F1F4F06C06081718180E0A7
:1010600090E00E5F1F4FA4010E941309A82EA8183C
:10107000FB2DFF777F2E76FE0BC0372D3E7FA5140C
:1010800050F474FE0AC072FC08C0372D3E7E05C0C5
:10109000BA2C372D03C0BA2C01C0B52C34FF0DC0BB
:1010A000FE01EA0DF11D8081803311F4397E09C003
:1010B00032FF06C0B394B39404C0832F867809F03E
:1010C000B39433FD13C030FF06C05A2CB31418F488
:1010D000530C5B18B32CB31468F4B70180E290E0B2
:1010E0003C870E94DB08B3943C85F5CFB31410F421
:1010F0003B1801C0312C34FF12C0B70180E390E0EF
:101100003C870E94DB083C8532FF17C031FD03C0DD
:1011100088E790E002C088E590E0B7010CC0832F1B
:10112000867859F031FF02C08BE201C080E237FDC2
:101130008DE2B70190E00E94DB08A51438F4B701F6
:1011400080E390E00E94DB085A94F7CFAA94F40160
:10115000EA0DF11D8081B70190E00E94DB08A1102B
:10116000F5CF332009F451CEB70180E290E00E9420
:10117000DB083A94F6CFF7018681978102C08FEFA2
:101180009FEF2C96E2E10C948D09FC0105906150D3
:1011900070400110D8F7809590958E0F9F1F08958D
:1011A000FC016150704001900110D8F78095909536
:1011B0008E0F9F1F08950F931F93CF93DF93FB0113
:1011C000238121FD03C08FEF9FEF28C022FF16C0AF
:1011D00046815781248135814217530744F4A08109
:1011E000B1819D012F5F3F4F318320838C932681F6
:1011F00037812F5F3F4F3783268310C0EB01092FC4
:10120000182F0084F185E02D0995892BE1F68E8158
:101210009F8101969F838E83812F902FDF91CF91A5
:101220001F910F910895FA01AA27283051F120311A
:1012300081F1E8946F936E7F6E5F7F4F8F4F9F4F6A
:10124000AF4FB1E03ED0B4E03CD0670F781F891FAC
:101250009A1FA11D680F791F8A1F911DA11D6A0F7A
:10126000711D811D911DA11D20D009F468943F912D
:101270002AE0269F11243019305D3193DEF6CF012C
:101280000895462F4770405D4193B3E00FD0C9F7F2
:10129000F6CF462F4F70405D4A3318F0495D31FD5F
:1012A0004052419302D0A9F7EACFB4E0A6959795B2
:1012B000879577956795BA95C9F700976105710588
:1012C00008959B01AC010A2E0694579547953795D2
:1012D0002795BA95C9F7620F731F841F951FA01D2C
:1012E00008952F923F924F925F926F927F928F92CA
:1012F0009F92AF92BF92CF92DF92EF92FF920F93A5
:101300001F93CF93DF93CDB7DEB7CA1BDB0B0FB6AE
:10131000F894DEBF0FBECDBF09942A88398848886B
:101320005F846E847D848C849B84AA84B984C88401
:10133000DF80EE80FD800C811B81AA81B981CE0FF8
:10134000D11D0FB6F894DEBF0FBECDBFED010895DD
:04135000F894FFCF3F
:1013540065026502000000004701C3001001EE00B1
:1013640002018E0141636B205061796C6F61643AB4
:1013740053656E740A0D0041636B205061796C6F84
:1013840061643A4661696C65640A0D00476F7420B4
:101394007061796C6F61642064697374616E6365F4
:0A13A4003A256C750A0D000D0A00D1
:00000001FF
